:020000040800F2
:10000000F80A0020E9010008D93C0008DF3900089F
:10001000D53C0008E515000829470008000000004D
:10002000000000000000000000000000F13F000898
:10003000A916000800000000C73F0008F33F0008B1
:10004000030200080302000803020008030200087C
:10005000030200080302000803020008030200086C
:10006000030200080302000803020008E915000863
:1000700003020008FD150008030200080D16000821
:10008000030200080302000803020008030200083C
:10009000030200080302000803020008030200082C
:1000A000030200080302000803020008030200081C
:1000B0008140000803020008030200080302000850
:1000C00003020008030200080302000803020008FC
:1000D0000302000801470008030200081547000852
:1000E00003020008030200080302000800F002F8FF
:1000F00000F06AF80AA090E8000C82448344AAF158
:100100000107DA4501D100F05FF8AFF2090EBAE855
:100110000F0013F0010F18BFFB1A43F0010318473B
:100120004C5F00006C5F00000A444FF0000C10F8B8
:10013000013B13F0070408BF10F8014B1D1108BF65
:1001400010F8015B641E05D010F8016B641E01F805
:10015000016BF9D113F0080F1EBF10F8014BAD1C55
:100160000C1B09D16D1E58BF01F801CBFAD505E073
:1001700014F8016B01F8016B6D1EF9D59142D6D3CD
:10018000704700000023002400250026103A28BFF5
:1001900078C1FBD8520728BF30C148BF0B607047F9
:1001A000662905F09D82642900F066800020704772
:1001B0001FB500F027FC04000020002104F0F6FE2B
:1001C000E0601FBD10B510BD00F020FD1146FFF727
:1001D000EFFF04F07FFC00F03EFD03B4FFF7F2FFF9
:1001E00003BC04F08CFB0000094880470948004725
:1001F000FEE7FEE7FEE7FEE7FEE7FEE7FEE7FEE7D7
:10020000FEE7FEE704480549054A064B7047000033
:100210007D400008ED000008F8040020F80A0020E6
:10022000F8060020F8060020704700000FB40449CB
:1002300010B503AA029800F0D3FB10BC5DF814FBC4
:10024000000000200FB41CB50C0007AA009001D0DC
:100250002044401E074B7B4469460190069800F0FD
:100260009EFB002C03D06946002000F0ABFB1CBCB9
:100270005DF814FB750700002DE9F04106460024E7
:1002800010687529314616A510D0AFF300800028FC
:1002900002DA404213A507E031688A0701D512A5AA
:1002A00002E0490704D511A5012401E0AFF3008065
:1002B00000210A2206F1240709E0B0FBF2FCB0FBA2
:1002C000F2F302FB1C00303078541846491C002819
:1002D000F3D123462A463046BDE8F04100F0F1B89C
:1002E000000000002D0000002B0000002000000096
:1002F0002DE9F05F894604464FF0000ADFF824B18B
:10030000FB44C0F820A02046E168884700287DD043
:10031000252806D0D4E901219047206A401C20629C
:10032000F1E700255F462046E16888472028064619
:1003300007DB312E05D2B81910F8200C08B105439F
:10034000F1E7A80701D525F00405C4F81CA0002793
:10035000C4F818A02A2E09D0304604F0C9FA38B3E0
:1003600004EB8708303EC8F8186019E059F8041B00
:10037000204604EB87029161E1688847012F064619
:1003800018D1E069002820DA25F020051DE0D8F812
:10039000180000EB800006EB40003038C8F8180069
:1003A0002046E1688847064604F0A2FA0028EED10C
:1003B000012F0AD02E2E08D12046E16888477F1CE5
:1003C0000646022F45F02005C4DBA069002803DAA9
:1003D000404245F00105A061E80701D025F0100575
:1003E000A6B1A6F14100192802D8203645F40065CF
:1003F0004A463146204625604D46FFF7D1FE60B1A2
:10040000012807D0ED1D25F0070000E007E000F10E
:10041000080978E705F1040975E730467AE7206AAC
:10042000BDE8F09FC05C00004FF000020429C0F05E
:10043000128010F0030C00F01B80CCF1040CBCF116
:10044000020F18BF00F8012BA8BF20F8022BA1EB68
:100450000C0100F00DB85FEAC17C24BF00F8012B4D
:1004600000F8012B48BF00F8012B70474FF0000245
:1004700000B5134694469646203922BFA0E80C509A
:10048000A0E80C50B1F12001BFF4F7AF090728BF75
:10049000A0E80C5048BF0CC05DF804EB890028BFF1
:1004A00040F8042B08BF704748BF20F8022B11F01A
:1004B000804F18BF00F8012B704770477047704796
:1004C00070472DE9F0470D4699469246044600F1E3
:1004D00024080168880604D5E06921F01001216034
:1004E00000E00120A84201DD471B00E00027A169D0
:1004F0007A1902EB0900081AA0612078C00602D41C
:100500002046AFF30080002608E0D4E901211AF864
:1005100006009047206A401C761C20624E45F4DBA2
:100520002078C0060AD52046AFF3008006E0D4E963
:10053000012130209047206A401C2062381EA7F11C
:100540000107F4DC07E0D4E9012118F80500904721
:10055000206A401C2062281EA5F10105F3DC20461C
:10056000AFF300802078000602D50220BDE8F087B6
:100570000120FBE770472DE9FF4F0C461E464FF068
:10058000FF378BB0D2E90001DDF860800A908A461F
:10059000C1F30A5505B93D46002108464FF0000059
:1005A000BAF1000F00F4400005DA00EB80004FF4D0
:1005B000400101EA50004FEA9059B9F1010F00DD06
:1005C000B9460A9850EA4A000ED044F61050A5F2F7
:1005D000FF3545432F14B8F1000F1ED07542291E78
:1005E0001EDDC9F100021CE0B8F1010F4FF0000060
:1005F00001D0302103E0F24305E02154401CB04219
:10060000FBDB30460022002121540B99C1F8088001
:10061000C1E900200FB0BDE8F08FBD1B6D1CDEE707
:100620004A4600DA694206A800F076FA06AB93E87B
:10063000070003AB83E8070050460A9900F054FB1B
:100640008DE80700A0F500501F3800900398002D9A
:100650000ADD42F21F014A460844002303A9039021
:10066000684600F0BDFD09E0A0F500504A461F387D
:10067000002303A90390684600F0C7FD8DE807003A
:100680000004000C03D04FF0FF30410800E010469A
:10069000B8F1000F03D00022009215461EE0751E2F
:1006A00005D400F0B3F9303262556D1EF9D5B3466A
:1006B0000122084302D000227F1C04E02078302869
:1006C00001D100227F1E002A099784D01DE0112D40
:1006D00007DA00F09BF9303262556D1C50EA0102D6
:1006E000F5D1084302D00098C8B10EE00021681E81
:1006F00005E0235C625C63542254401E491C814225
:10070000F7DBAB46A81B401E0990002004F80B0045
:100710000B98099AC0F80880C0E9002B7AE71126E7
:100720004FF0000857E72DE9F04F88460446D21DE8
:1007300022F0070191B0D1E90001CDE90A0104F0EE
:10074000A7F802460B98C00F01D02D2007E02068C3
:10075000810701D52B2002E0202101EAC000032AF5
:10076000099001D0072A05DB03464146204600F0E8
:1007700093F90BE12078800601D5E06900E00620BE
:10078000B8F1650F814606D0B8F1660F18D0B8F100
:10079000670F70D131E00020B9F1110F009001DB3B
:1007A000112301E009F101030AAA01A90CA8FFF72E
:1007B000E2FEDDE90C70002609F10105834647E001
:1007C00001204B4600904FF000470AAA01A90CA84F
:1007D000FFF7D1FEDDE90DB00C995D46002610B99A
:1007E00009F101000D18B9EB050003D4C0F1FF3683
:1007F00009F10105A5EB09002BE0B9F1010F01DAC0
:100800004FF001090020B9F1110F0090484601DDB9
:10081000112300E003460AAA01A90CA8FFF7ABFECA
:10082000DDE90C704D4600268346207800070AD487
:10083000AB4500DA5D4601A8012D04DD411911F830
:10084000011C302907D04F4502DA17F1040F04DAF2
:10085000012082460FE06D1EEEE7002F02DCED1B4B
:100860003E4403E0781CA84200DD7D1CB81B00F16B
:10087000010A4FF000472078000703D4AA4501DBA6
:100880004FF0FF3A0021B7F1004F0DF143088DF80A
:10089000431024D002202B23002F01DA7F422D2386
:1008A0000A21021EA0F1010000DC5FB197FBF1FC00
:1008B00097FBF1F201FB1C7C17460CF1300C08F899
:1008C00001CDEEE7A8F1010003702188090501D5EB
:1008D000452100E06521A0F1010800F8011C0998FC
:1008E0000FA9A1EB0807FF1D00B10120411901EB81
:1008F000EA70A1693844081A401EA0612078C00639
:1009000002D42046AFF30080099828B1D4E9012130
:100910009047206A401C20622078C00622D52046DD
:10092000AFF300801EE0002E04DBB34502DD01A81A
:10093000805D00E03020D4E901219047206A401C0E
:100940002062761CAAF101005FEA000A0AD100F0D9
:1009500059F8C0680168405CD4E901219047206AD9
:10096000401C2062281EA5F10105DCDC07E0D4E96B
:10097000012118F8010B9047206A401C2062381EA4
:10098000A7F10107F3DC2046AFF30080032011B08C
:1009900041E6000001694A1C02610878704700B511
:1009A0008FB0CDE901310021059105497944CDE9A8
:1009B000031011466846FFF79BFC0FB000BD000016
:1009C000E5FFFFFF0A6802F8010B0A607047D1E9F2
:1009D00000239A4202D2531C0B6010707047000033
:1009E000074B70B50D467B44FFF7D9FF04462846F8
:1009F00000F004F910B14FF0FF3070BD204670BD1B
:100A00001B3F000000487047B804002030B5B0F12B
:100A10000A024FEA900E71F100034EEA817EB0EBBC
:100A20000E0061EB91014FEA101E4EEA017E10EBC1
:100A30000E0041EB11114FEA102E4EEA016E10EB41
:100A40000E0041EB11214FEA104E4EEA014E10EB21
:100A50000E0041EB1141401841F100014FEAD00076
:100A600040EA41704FEAD10110EB80054FEA810462
:100A700044EA907444EB01046D1944EB0404521BE6
:100A8000A3414FF0000348BF0A3200D530BD401CDF
:100A900041F1000130BD00002DE9F0411F46044640
:100AA00003260168072A01F4006004DB08B116A5DB
:100AB00005E016A503E008B115A500E015A521F095
:100AC00010002060A069C01EA0610FB1401EA0618F
:100AD0002046AFF300804FB1D4E90121384690475A
:100AE000206A401C2062C01C206206E0206AFAE7EF
:100AF000D4E9012115F8010B9047761EF8D2204663
:100B0000AFF30080BDE8F0814E414E006E616E0093
:100B1000494E4600696E66002DE9F047814616464B
:100B20008AB0354878440DC88DE80D0032487844C5
:100B3000801C03AC0DC884E80D0041F69B300844CE
:100B4000372190FBF1F290FBF1F5A5F1800501FB57
:100B500012041B3C02D56442012000E00020DFF8B3
:100B600098A080460027FA44AAF1BE0A0EE0E007EA
:100B70000AD03246684607EB470101230AEB8101A0
:100B800000F043FB8DE8070064107F1C002CEED1C1
:100B9000194F7F44AE3F19E0E80715D007EB04106A
:100BA0000DF1180A90E80E008AE80E00C068F042C5
:100BB00001D1981908903246012306A903A800F034
:100BC00024FB03AB83E807006D10641C002DE3D108
:100BD0004FF0010332466946B8F1000F03A802D076
:100BE00000F0FEFA01E000F010FBC9E90001C9F8CD
:100BF00008200AB0BDE8F0872C550000007B00F00B
:100C00008000704700487047980400207546FFF741
:100C1000F9FFAE4605006946534620F007008546B9
:100C200018B020B5FFF7EEFABDE820404FF00006FF
:100C30004FF000074FF000084FF0000B21F00701C4
:100C4000AC46ACE8C009ACE8C009ACE8C009ACE807
:100C5000C0098D46704710B50446AFF300802046AA
:100C6000BDE81040FFF7B9BA4FF0013C50F8042B33
:100C700051F8043B9A4221D1A2EB0C03934313EAAF
:100C8000CC1317D150F8042B51F8043B9A4215D1DC
:100C9000A2EB0C03934313EACC130BD150F8042BB3
:100CA00051F8043B9A4209D1A2EB0C03934313EA97
:100CB000CC13DBD04FF00000704700BFD01A01BA50
:100CC000B1FA81F101F0180122FA01F0CB40C1F133
:100CD0002001DBB2C0B2C01A2CFA01F3D11A914341
:100CE00011EAC311E6D170475FEA400C08BF91F0EA
:100CF000000F4FEA8C234FEAC12243EA51514FEAD9
:100D00001C5018BF00F5F0404FEA300018BF41F00A
:100D100000415FEA6C5C00F02980BCF1FF3F08BF36
:100D200040F080407047130C06BF12044FF0100CC7
:100D30004FF0000C130E04BF12020CF1080C130F3D
:100D400004BF12010CF1040C930F04BF92000CF1CC
:100D5000020CD30F04BF52000CF1010C11464FF0EE
:100D60000002A0F11F00A0EB0C00704711F0004F33
:100D700008BF704731F000413FF4D5AF0B0C06BF00
:100D800009044FF0100C4FF0000C0B0E04BF0902C9
:100D90000CF1080C0B0F04BF09010CF1040C8B0FB4
:100DA00004BF89000CF1020CCB0F04BF49000CF109
:100DB000010CCCF12003A0EB0C0022FA03F302FAA1
:100DC0000CF241EA030100F10100704720F07F4C72
:100DD00080EA030023F07F47ACEB070303F57C5365
:100DE00000F0004003F1FF032DE980494FEA154B65
:100DF00009B44FEA144325EA0B4E24EA03480FF2E4
:100E0000042606EB132749083E785FEA320203FB0B
:100E10000667C7F5000707FB06F64FEA54374FEAA7
:100E2000D64606F1020607FB066CCCF1005C4FEAE1
:100E30001C472CEA074C07FB06F40CFB06F504EBF9
:100E400015464FEA961634BF00204FF000404FEA97
:100E5000D13706FB07FC4FEA1C4C0CFB0BF7D21BEF
:100E600003FB0CF761EB07010CFB0EF7B0EB07403F
:100E700072EB17420CFB08F734BFA2EB0742B2EB50
:100E8000074261EB17414FEA0C444FEA910706FB1A
:100E900007FC4FEA1C4C0CFB0BF7B0EBC74072EBA6
:100EA000573203FB0CF734BFA2EBC742B2EBC74289
:100EB00061EB57310CFB0EF7B0EBC70072EB5772CA
:100EC0000CFB08F734BFA2EBC702B2EBC70261EB21
:100ED0005771039F4FEA816141EA921104EBCC0400
:100EE0004FEAD1374FEA826206FB07FC42EA9012D2
:100EF0004FEA80604FEA1C4C0CFB0BF7D21B03FB44
:100F00000CF761EB07010CFB0EF7B0EB074072EB3F
:100F100017420CFB08F734BFA2EB0742B2EB0742C3
:100F200061EB17414FEA8C554FEA910704EB9C2483
:100F300006FB07FC4FEA1C4C0CFB0BF7B0EBC74061
:100F400072EB573203FB0CF734BFA2EBC742B2EB94
:100F5000C74261EB57310CFB0EF7B0EBC70072EBE9
:100F600057720CFB08F734BFA2EBC702B2EBC70203
:100F700061EB577115EB4C254FEA816141EA921103
:100F80004FEA82624FEAD13742EA901206FB07FC31
:100F900044F100044FEA80604FEA1C4C0CFB0BF755
:100FA000D21B03FB0CF761EB07010CFB0EF7B0EB58
:100FB000074072EB17420CFB08F734BFA2EB074265
:100FC000B2EB074261EB174115EB1C154FEA81317B
:100FD00041EA92414FEA823242EA90424FEA80303F
:100FE0004FEA0C7644F1000448EA03434EEA0B480A
:100FF0004FF0000EB2EB080C71EB030724BF624602
:1010000039464EEB0E0E4FF0000B0018524149418D
:101010004BEB0B0BB2EB080C71EB03077BF1000BF6
:1010200024BF624639464EEB0E0E4FF0000B0018FF
:10103000524149414BEB0B0BB2EB080C71EB030730
:101040007BF1000B24BF624639464EEB0E0E51EA8F
:10105000020718BF46F0010616EB0E7655F10002A6
:1010600054F1000103D5BDE88901BDE80088BDE861
:101070008901BDE80048B619524141EB0101A3F1D5
:101080000103704780807F7E7D7C7B7A79787776DC
:1010900076757473727171706F6E6E6D6C6C6B6A55
:1010A0006A696868676666656464636362616160F3
:1010B000605F5F5E5E5D5D5C5C5B5B5A5A59595870
:1010C00058575756565555555454535352525251DA
:1010D000515050504F4F4F4E4E4D4D4D4C4C4C4B30
:1010E0004B4B4A4A4A494949484848474747474677
:1010F00046464545454444444443434343424242B3
:1011000042414141002B9C4630D477002BD01CB586
:101110004FEA370703B44FF010004FF01001BAF157
:10112000000F06D0BCF1000FDCBF40F0080040F01B
:1011300008014FF000000FBCBDE810400BF1010B9F
:10114000BBF1010F08BF5FEA170722BF12F10102CE
:1011500011F101014FF0004143F1000300F00040A4
:1011600043EA00007047F9D35708D0E746EA06463D
:1011700013F1400F4FEA16461FDD13F1200FDFBFBA
:1011800016430A46002120335B42BED0C3F120073C
:1011900046EA064602FA07F74FEA164646EA070607
:1011A000C3F1200722FA03F201FA07F721FA03F14B
:1011B0004FF0000342EA0702A7E746EA020646EAC2
:1011C00006464FEA164646EA0106BCBF46EA064610
:1011D000360C4FF000034FF000024FF0000194E78F
:1011E0002DE9804C9A46934670B491E8380007C8C0
:1011F00031EA400C48BF34EA430C03D5FFF7E6FD63
:10120000FFF780FFF0BCBDE8008C2DE9804C9A46CA
:10121000934670B491E8380007C810F0804F08BFBB
:1012200013F0804F03D100F005F8FFF76BFFF0BC1F
:10123000BDE8008C20F07F4780EA030023F07F4C5C
:1012400007EB0C03A3F57C5300F00040A3F1FE0371
:1012500092F0000F00F0B38095F0000F00F077805F
:101260002DE901494FEA11404FEA144621EA0048AE
:1012700000FB06FC24EA064708FB06F607FB08F815
:1012800000FB07F718EB06484CEB164C4FEA124BE5
:1012900018EB07484FEA15464CEB174022EA0B4E75
:1012A0000BFB06FC25EA06470EFB06F607FB0EFEC7
:1012B0000BFB07F71EEB064E4CEB164C4FF00006EF
:1012C0001EEB074E4CEB174B18EB0B0840F10000E0
:1012D00018EB0E0B58EB000840F100008F1A4FF08E
:1012E00000013CBFC943661B14BFB5EB040C0021D1
:1012F0003CBFC943F61B4FEA17444EEA8E0E27EA5D
:1013000004454FEA1C4704FB07622CEA074C05FB27
:1013100007F70CFB05F604FB0CFC16EB074642EB4B
:10132000174216EB0C4642EB1C421BEB060658EB31
:101330000202414146EA9E0601D5BDE80189B6197F
:10134000524141EB0101A3F10103BDE801894FEADC
:1013500014454FEA114724EA054621EA074C05FBEC
:1013600007F406FB07F70CFB06F105FB0CFC11EB81
:10137000074144EB17444FEA124711EB0C4144EB91
:101380001C4422EA074C05FB07F206FB07F70CFB9F
:1013900006F605FB0CFC16EB074642EB174216EB74
:1013A0000C4642EB1C456A1854F1000148BF7047D7
:1013B000B619524141EB0101A3F10103704795F0C9
:1013C000000F37D04FEA11424FEA144721EA024694
:1013D00024EA074C02FB07F106FB07F70CFB06F4B7
:1013E00002FB0CFC14EB074441EB17414FEA154795
:1013F00014EB0C4441EB1C4125EA074C02FB07F5BA
:1014000006FB07F70CFB06F602FB0CFC16EB074687
:1014100045EB174516EB0C4645EB1C42121951F1F2
:10142000000148BF7047B619524141EB0101A3F1D9
:10143000010370474FEA14454FEA114724EA054675
:1014400021EA074C05FB07F106FB07F70CFB06F248
:101450004FF0000605FB0CFC12EB074241EB174175
:1014600012EB0C4251EB1C4148BF7047921841EB04
:101470000101A3F10103704770B5044600252068FF
:10148000806800F0010018B32068806820F0010037
:101490002168886000F0CAFF054613E000F0C6FF2F
:1014A000401B02280ED92068806800F0010048B176
:1014B000A06A40F01000A062E06A40F00100E06223
:1014C000012070BD2068806800F001000028E5D18F
:1014D0000020F6E770B505466C6AA06A00F050007F
:1014E000E0B9A06A40F40070A0622068806800F44F
:1014F0006020B0F5602F0DD1207B58B9A06A20F490
:101500008070A062A06A00F4805018B9A06A40F010
:101510000100A062204600F007FA03E0206A016B98
:101520002846884770BD70B505466C6AA06A40F0D1
:101530004000A062E06A40F00400E062204600F053
:10154000F5F970BD70B50446656A284600F0EDF9FE
:1015500070BD000038B504460025002000902068CA
:10156000806800F0010078BB2068806840F00100CE
:1015700021688860194800681949B0FBF1F00090B3
:1015800002E00098401E009000980028F9D100F079
:101590004DFF054619E000F049FF401B022814D911
:1015A0002068806800F0010078B9A06A40F010005F
:1015B000A062E06A40F00100E06200BF002084F811
:1015C000240000BF012038BD05E02068806800F0DD
:1015D00001000028DFD00020F5E700004C010020CA
:1015E00040420F0000BFFEE710B5034800F012FCB8
:1015F00000F014F810BD0000A801002010B502484A
:1016000000F008FC10BD00000003002010B50248E7
:1016100000F000FC10BD0000BC0200201CB5002042
:1016200000900190124800F03DFB002017E00021DF
:101630000AE03DF810200B180E4C34F823301A4401
:1016400092B22DF81020C91C1E29F2DB3DF81010B3
:101650000A2291FBF2F1084A22F81010401C0328DC
:10166000E5DB3C220349024800F05CFA1CBD0000A7
:1016700078010020200400200401002030B590F8FB
:1016800040500124AC40C56B6C60046863604468E2
:10169000102C04D10468A2600468E16003E00468CF
:1016A000A1600468E26030BD704772B600BFFEE71B
:1016B000F8B5044600260020009000BF94F82400EE
:1016C000012801D10220F8BD012084F8240000BFC8
:1016D0002046FFF7D1FE0646002E6CD1A06A20F40A
:1016E000885040F00200A062022000F077FF3549E8
:1016F0000968B1FBF0F04000009002E00098401E45
:10170000009000980028F9D12046FFF723FF2068B9
:10171000806840F008002168886000F087FE054678
:1017200016E000F083FE401B0A2811D9206880686B
:1017300000F0080060B1A06A20F0020040F0100044
:10174000A06200BF002084F8240000BF0120BAE797
:101750002068806800F008000028E2D120688068D6
:1017600040F004002168886000F060FE054616E045
:1017700000F05CFE401B0A2811D92068806800F048
:10178000040060B1A06A20F0020040F01000A062E6
:1017900000BF002084F8240000BF012093E72068E8
:1017A000806800F004000028E2D1A06A20F0020066
:1017B00040F00100A06200BF002084F8240000BFB8
:1017C000304680E74C01002038B502460023002057
:1017D000009000BF92F82400012801D1022038BDFA
:1017E000012082F8240000BF4868072812D2106840
:1017F000406B0C79641E04EB84051F24AC40A043AD
:101800000D796D1E05EB85050C68AC40204314680E
:10181000606327E048680D2812D21068006B0C79CD
:10182000E41F04EB84051F24AC40A0430D79ED1F99
:1018300005EB85050C68AC4020431468206311E07B
:101840001068C06A0C790D3C04EB84051F24AC4081
:10185000A0430D790D3D05EB85050C68AC40204398
:101860001468E06208680A2812D31068C0680C780F
:101870000A3C04EB44050724AC40A0430D780A3D24
:1018800005EB45058C68AC4020431468E0600FE030
:10189000106800690C7804EB44050724AC40A043B1
:1018A0000D7805EB45058C68AC4020431468206139
:1018B0000868102802D00868112827D1174C106832
:1018C000A0421ED11068806800F40000F0B91068D2
:1018D000806840F400001468A0600868102815D1E2
:1018E0000F4800680F4CB0FBF4F000EB80004000A4
:1018F000009002E00098401E009000980028F9D166
:1019000004E0906A40F020009062012300BF0020B4
:1019100082F8240000BF184661E70000002401405F
:101920004C01002040420F00704770477047000094
:101930002DE9F0410446002700250026A84614B9E9
:101940000120BDE8F081A06810B1207D00B100BF8A
:10195000A06A30B90020E06284F82400204600F03C
:1019600089F82046FFF788FD0746A06A00F01000BE
:10197000002873D1002F71D1A06A20F4885040F064
:101980000200A062E16960680843217B40EA4100EF
:101990000643A068B0F5807F02D0A068012802D17C
:1019A0004FF4807000E000200543207D012811D114
:1019B000207B38B9A069401E4FF4006141EA4030F5
:1019C000054307E0A06A40F02000A062E06A40F012
:1019D0000100E0622068406820F4694028432168E3
:1019E0004860206880682149084030432168886049
:1019F000A068B0F5807F02D0A068012802D14FF422
:101A0000807000E00020B0F5807F03D1208A401E66
:101A10004FEA00582068C06A20F4700040EA0800CD
:101A20002168C8622068806811490840B04208D126
:101A30000020E062A06A20F0020040F00100A062F5
:101A400011E0A06A20F0020040F01000A062E06AFD
:101A500040F00100E062012705E0FFE7A06A40F0E6
:101A60001000A062012738466BE70000FDF7E1FF98
:101A7000FE0E1FFF10B586B00446002002900390B2
:101A8000049005902249206888423ED100BF214839
:101A9000806940F400701F4988610846806900F43D
:101AA0000070019000BF00BF00BF0846806940F091
:101AB000040088610846806900F00400019000BFBE
:101AC00000BF0E2002900320039002A9124800F0EC
:101AD00005FB1248124908600020486000211048A8
:101AE00081608021C16049000161C90041612021FC
:101AF00081610021C16100F05BFA08B1FFF7D5FDFB
:101B000000BF07482062446200BF06B010BD00005D
:101B1000002401400010024000080140080002407B
:101B2000A80100202DE9F04104460D461646002785
:101B300057492068884203D056492068884205D119
:101B40005348001D006800F4702000E000200028C9
:101B50007ED100BF94F82400012802D10220BDE804
:101B6000F081012084F8240000BF2046FFF7F2FC3A
:101B70000746002F6DD1A06A40F60161884340F40A
:101B80008070A06243492068884209D14048001D06
:101B9000006800F4702008B9012002E0002000E095
:101BA000012078B1A06A20F48010A062206840680B
:101BB00000F4806000B3A06A20F4005040F480502C
:101BC000A06219E0A06A40F48010A0623049206849
:101BD000884203D02F492068884205D12C48001D37
:101BE000006800F4806000E0002028B1A06A20F4C2
:101BF000005040F48050A062A06A00F4805020B1F0
:101C0000E06A20F00600E06201E00020E06200BF30
:101C1000002084F8240000BF1F48216A88621F4802
:101C2000216AC8621E48216A08636FF002002168B9
:101C300008602068806840F48070216888602268AD
:101C400002F14C0133462A46206A00F0E5F901E032
:101C50001AE014E02068806800F46020B0F5602F7E
:101C600006D12068806840F4A000216888600CE0FC
:101C70002068806840F480102168886005E000BF1B
:101C8000002084F8240000E00127384667E70000C0
:101C90000024014000280140D51400084515000823
:101CA0002715000870B50446002500BF94F82400ED
:101CB000012801D1022070BD012084F8240000BF5A
:101CC0002046FFF7D9FB0546D5B92068806820F487
:101CD000807021688860206A90F8210002280FD166
:101CE000206A00F014F8054635B9A06A20F488503F
:101CF00040F00100A06203E0A06A40F04000A06252
:101D000000BF002084F8240000BF2846D3E7014626
:101D1000002291F82100022808D00420886300BF27
:101D2000002081F8200000BF01207047086800688B
:101D300020F00E000B6818600868006820F00100B1
:101D40000B68186091F8403001209840CB6B5860C8
:101D5000012081F8210000BF002081F8200000BF91
:101D60001046E2E770B50446002594F821000228E9
:101D700003D00420A063012548E02068006820F01B
:101D80000E00216808602068006820F001002168CA
:101D900008601F492068884201D1012026E01C49C3
:101DA00014312068884201D110201FE018492831E1
:101DB0002068884201D1801518E015493C3120681F
:101DC000884201D1801411E01149503120688842C5
:101DD00002D14FF4803009E00D4964312068884217
:101DE00002D14FF4801001E04FF0807008490839AB
:101DF0004860012084F8210000BF002084F8200002
:101E000000BF606B10B12046616B8847284670BDEB
:101E10000800024070B50446E06B0568206806685B
:101E200094F84010042088402840002846D006F04E
:101E30000400002842D02068006800F0200028B983
:101E40002068006820F00400216808605749206875
:101E5000884201D1042027E0544914312068884287
:101E600001D1402020E0514928312068884201D129
:101E7000001519E04D493C312068884202D14FF4E9
:101E8000804011E0494950312068884202D14FF426
:101E9000802009E0454964312068884202D14FF42E
:101EA000800001E04FF08060404908394860E06AF6
:101EB00000287AD02046E16A884776E094F84010FE
:101EC000022088402840A0B306F0020088B32068B2
:101ED000006800F0200040B92068006820F00A0087
:101EE00021680860012084F8210030492068884278
:101EF00001D1022028E02D4914312068884201D107
:101F0000202021E0294928312068884201D140154C
:101F10001AE026493C312068884202D14FF4005033
:101F200012E0224950312068884203D14FF400303A
:101F30000AE017E01D4964312068884202D14FF45D
:101F4000001001E04FF0007018490839486000BFE8
:101F5000002084F8200000BFA06A30B32046A16AA8
:101F6000884722E094F84010082088402840E0B1DB
:101F700006F00800C8B12068006820F00E00216853
:101F8000086094F8401001208840E16B486001200F
:101F9000A06384F8210000BF002084F8200000BF67
:101FA000206B10B12046216B884770BD08000240AD
:101FB0000146002209B901207047164B0868C01A73
:101FC0001423B0FBF3F08000086412480838C8639B
:101FD000022081F821000868026843F6F07082430D
:101FE000D1E901031843CB6818430B6918434B69C7
:101FF00018438B691843CB69184302430868026091
:1020000000208863012081F82100002081F8200051
:1020100000BFD1E7080002402DE9F04104460D461B
:1020200016461F464FF0000800BF94F82000012814
:1020300002D10220BDE8F081012084F8200000BF19
:1020400094F8210001282CD1022084F821000020DE
:10205000A0632068006820F00100216808603B460A
:10206000324629462046FFF709FBE06A30B1206876
:10207000006840F00E00216808600BE020680068EE
:1020800020F00400216808602068006840F00A0021
:10209000216808602068006840F00100216808603D
:1020A00006E000BF002084F8200000BF4FF00208C7
:1020B0004046BFE770B5044600F0B8F9064625462D
:1020C000681C10B104480078054400BF00F0AEF968
:1020D000801BA842FAD370BD480100202DE9F847C3
:1020E0000346002294466EE14FF0010808FA02F41C
:1020F000D1F8008008EA0400A0427DD1DFF8DCA21C
:10210000D1F80480A8EB0A09D0453AD014DCB8F124
:10211000030F50D009DCB8F1000F31D0B8F1010F36
:102120001CD0B8F1020F49D120E0B8F1110F18D03E
:10213000B8F1120F42D11EE0B9F5881F25D006DC98
:10214000B9F5803F20D0B9F5801F37D11AE0B9F535
:10215000001F18D0B9F5041F30D117E0D1F80CC01A
:102160002DE0D1F80C8008F1040C28E0D1F80C80A7
:1021700008F1080C23E0D1F80C8008F10C0C1EE0EB
:1021800000BF00BF00BF00BF00BF00BFD1F8088084
:10219000B8F1000F02D14FF0040C0BE0D1F8088029
:1021A000B8F1010F03D14FF0080C1C6102E04FF0B1
:1021B000080C5C6103E04FF0000C00E000BF00BFC2
:1021C000FF2801D8984601E003F104084646FF289D
:1021D00002D84FEA820803E0A2F108084FEA880813
:1021E0004746D6F800804FF00F0909FA07F928EAA8
:1021F00009080CFA07F900E088E048EA0908C6F87F
:102200000080D1F8048008F08058B8F1805F7DD15B
:1022100000BFDFF8CC81D8F8188048F00108DFF85B
:10222000C091C9F81880C846D8F8188008F001088D
:10223000CDF8008000BF00BF4FEAB9384FEA9209DD
:1022400058F829504FEA82784FEA18794FF00F0872
:1022500008FA09F825EA0805DFF88881434502D124
:102260004FF0000816E0DFF88081434502D14FF0BF
:1022700001080FE0DFF87481434502D14FF00208F6
:1022800008E0DFF86C81434502D14FF0030801E01C
:102290004FF004084FEA82794FEA197908FA09F8F1
:1022A00048EA0505DFF84C814FEA920948F82950C1
:1022B000D1F8048008F48038B8F5803F0AD1DFF8FF
:1022C0003881D8F8008048EA0008DFF82C91C9F876
:1022D000008009E0DFF82081D8F8008028EA0008B3
:1022E000DFF81491C9F80080D1F8048008F40038B0
:1022F000B8F5003F10D1DFF8008108F10408D8F8E4
:10230000008048EA0008DFF8F09000E05AE009F1A8
:102310000409C9F800800DE0DFF8DC8008F104084A
:10232000D8F8008028EA0008DFF8CC9009F1040909
:10233000C9F80080D1F8048008F48018B8F5801F2F
:102340000ED1DFF8B48008F10808D8F8008048EA18
:102350000008DFF8A49009F10809C9F800800DE031
:10236000DFF8948008F10808D8F8008028EA00080F
:10237000DFF8849009F10809C9F80080D1F80480D9
:1023800008F40018B8F5001F0ED1DFF86C8008F1D2
:102390000C08D8F8008048EA0008DFF85C9009F1E2
:1023A0000C09C9F800800DE0DFF84C8008F10C083A
:1023B000D8F8008028EA0008DFF83C9009F10C0901
:1023C000C9F80080521CD1F8008028FA02F8B8F150
:1023D000000F7FF489AEBDE8F887000000001110FF
:1023E0000010024000080140000C014000100140B4
:1023F00000140140080001400004014002469368B7
:102400000B400BB1012000E00020704710B5C268FE
:1024100021EA020302EA010443EA0443036110BD16
:102420000AB1016101E00B040361704701480068D3
:102430007047000040010020034800680349097804
:10244000084401490860704740010020480100200D
:1024500010B50848006840F01000064908600320E5
:1024600000F0A8F80F2000F007F800F02BF800208B
:1024700010BD00000020024070B504460E480078F0
:102480004FF47A71B1FBF0F00C490968B1FBF0F53B
:10249000284600F02FFD08B1012070BD102C07D296
:1024A00000222146501E00F047F80548046001E074
:1024B0000120F2E70020F0E7480100204C01002055
:1024C0004401002008B500BF1148806940F00100B8
:1024D0000F4988610846806900F00100009000BF44
:1024E00000BF00BF0846C06940F08050C861084680
:1024F000C06900F08050009000BF00BF00BF0549D8
:10250000486820F0E06040F00070486000BF08BDFF
:10251000001002400000014001460846002809DB87
:1025200000F01F0301229A4043099B0003F1E023BE
:10253000C3F8002100BF70472DE9F05F80460D46CB
:102540001646002702F0B8F9074639462A463346B0
:1025500001F00700C0F1070ABAF1040F02D94FF0E9
:10256000040A01E0C0F1070AD14600F1040ABAF1F9
:10257000070F02D24FF0000A01E0A0F1030AD4468F
:102580004FF0010A0AFA09FAAAF1010A0AEA020A54
:102590000AFA0CFA4FF0010B0BFA0CFBABF1010B32
:1025A0000BEA030B4AEA0B042146404602F08CF981
:1025B000BDE8F09F00BF00F00702064B19684FF618
:1025C000FF031940044B0B4343EA0221014B1960FE
:1025D00000BF70470CED00E00000FA052DE9F04364
:1025E00085B006463BA30FCB01AC0FC43DA00068ED
:1025F00000904FF00008002500270024A146012E7E
:1026000030D0022E55D0102E5ED137484468006875
:1026100000F0807000B301A8C4F38341475C04F468
:10262000803070B130484068C0F340401DF80080F1
:1026300004F4803040B12D48B0FBF8F000FB07F502
:1026400002E02B4807FB00F52748406800F48000B3
:10265000B0F5800F01D1A94603E068000321B0FB6B
:10266000F1F932E02048046A04F44070B0F5807F4C
:1026700005D104F0020010B14FF4004918E004F451
:102680004070B0F5007F07D11748406A00F00200A3
:1026900010B149F640490BE004F44070B0F5407FBA
:1026A00006D11148006800F4003008B14FF2244907
:1026B0000BE000F093F90C494968C1F38131491CE2
:1026C0004900B0FBF1F900E000BF00BF484605B08B
:1026D000BDE8F08302030405060708090A0B0C0D88
:1026E0000E0F1010010200000010024000127A00CC
:1026F00000093D00F8B5044600260025207800F0CA
:10270000010000286BD000274348C06900F08050CA
:1027100070B900BF4048C06940F080503E49C86170
:102720000846C06900F08050009000BF00BF01273C
:102730003A48006800F48070B0B93848006840F446
:10274000807036490860FFF771FE064606E0FFF725
:102750006DFE801B642801D90320F8BD2F48006856
:1027600000F480700028F2D02B48006A00F4407515
:102770002DB3A08800F44070A84220D02648006AFB
:1027800020F4407501202649086000200860224896
:10279000056205F0010090B1FFF748FE064608E02B
:1027A000FFF744FE801B41F28831884201D90320A3
:1027B000D3E71948006A00F002000028F0D016485C
:1027C000006A20F440706168084313490862012FD1
:1027D00004D10846C06920F08050C86100BF20784D
:1027E00000F00200022807D10B48406820F4404066
:1027F000A168084308494860207800F010001028BC
:1028000007D10548406820F48000E1680843024988
:1028100048600020A1E70000001002400070004066
:102820004004424270B504460D460CB9012070BD0B
:102830005A48006800F00700A8420ED257480068C6
:1028400020F007002843554908600846006800F05A
:102850000700A84201D00120E9E7207800F002003B
:1028600002281DD1207800F00400042805D14C482E
:10287000406840F4E0604A494860207800F0080071
:10288000082805D14648406840F4605044494860F3
:102890004348406820F0F000A16808434049486080
:1028A000207800F0010078B36068012806D13C4828
:1028B000006800F4003090B90120B8E76068022891
:1028C00006D13748006800F0007040B90120AEE73B
:1028D0003348006800F0020008B90120A7E730483B
:1028E000406820F00300616808432D494860FFF705
:1028F0009DFD064609E0FFF799FD801B41F28831F6
:10290000884202D9032092E707E02548406800F09A
:102910000C006168B0EB810FEDD12048006800F039
:102920000700A8420ED91D48006820F00700284380
:102930001A4908600846006800F00700A84201D064
:10294000012074E7207800F00400042807D114481F
:10295000406820F4E060E16808431149486020784D
:1029600000F00800082808D10D48406820F46050A5
:10297000216940EAC1000A49486000F03FF808496F
:102980004968C1F30311074A515CC8400649086011
:1029900006480068FFF770FD002048E7002002406D
:1029A00000100240AC5F00084C01002044010020F0
:1029B00001480068704700004C01002000B5FFF797
:1029C000F7FF04494968C1F30221034A515CC8403A
:1029D00000BD000000100240BC5F000800B5FFF71A
:1029E000E7FF04494968C1F3C221034A515CC8406A
:1029F00000BD000000100240BC5F0008F0B585B0CB
:102A00000FF26C0C9CE8E01001A8A0E8E0101CA5F7
:102A10002D68009500210022002300240020194D7C
:102A2000696801F00C05F5B1042D02D0082D19D10B
:102A300001E0154819E001ADC1F38346AC5D01F436
:102A4000803555B10F4D6D68C5F340451DF8052023
:102A50000D4D6543B5FBF2F302E00C4D04FB05F3AD
:102A6000184602E000BF084800BF00BF05B0F0BD37
:102A700002030405060708090A0B0C0D0E0F1010BF
:102A8000010200000010024000127A0000093D001F
:102A9000F8B504460CB90120F8BD207800F001001B
:102AA000002878D0F848406800F00C0004280CD0CA
:102AB000F548406800F00C00082811D1F248406841
:102AC00000F48030B0F5803F0AD1EF48006800F490
:102AD000003000285FD0606800285CD10120DBE76F
:102AE00000BF6068B0F5803F06D1E748006840F459
:102AF0008030E549086028E0606858B9E24800681D
:102B000020F48030E04908600846006820F4802006
:102B100008601AE06068B0F5A02F0BD1DA480068B1
:102B200040F48020D84908600846006840F48030AE
:102B300008600AE0D448006820F48030D249086078
:102B40000846006820F48020086000BF606888B1F3
:102B5000FFF76CFC054606E0FFF768FC401B6428A5
:102B600001D9032098E7C848006800F40030002825
:102B7000F2D010E0FFF75AFC054606E0FFF756FCDE
:102B8000401B642801D9032086E7BF48006800F491
:102B900000300028F2D1207800F00200022857D13E
:102BA000B948406800F00C0050B1B748406800F0E8
:102BB0000C00082818D1B448406800F4803098B957
:102BC000B148006800F0020020B12069012801D05E
:102BD000012061E7AC48006820F0F800616940EA34
:102BE000C100A949086033E02069E8B10120A74984
:102BF0000860FFF71BFC054606E0FFF717FC401BCB
:102C0000022801D9032047E79F48006800F002002E
:102C10000028F2D09C48006820F0F800616940EA82
:102C2000C1009949086013E0002098490860FFF747
:102C3000FDFB054606E0FFF7F9FB401B022801D922
:102C4000032029E79048006800F002000028F2D134
:102C5000207800F0080008282DD1A069B8B1012023
:102C60008B490860FFF7E2FB054606E0FFF7DEFB55
:102C7000401B022801D903200EE78348406A00F078
:102C800002000028F2D0012001F09EF913E000209C
:102C90007F490860FFF7CAFB054606E0FFF7C6FB61
:102CA000401B022801D90320F6E67748406A00F06D
:102CB00002000028F2D1207800F00400042873D12B
:102CC00000277148C06900F0805070B900BF6E489D
:102CD000C06940F080506C49C8610846C06900F086
:102CE0008050009000BF00BF01276A48006800F4D0
:102CF0008070B0B96748006840F48070654908602A
:102D0000FFF794FB054606E0FFF790FB401B6428A5
:102D100001D90320C0E65F48006800F480700028F5
:102D2000F2D000BFE068012806D15748006A40F0A1
:102D300001005549086227E0E06858B95248006A26
:102D400020F00100504908620846006A20F00400A3
:102D5000086219E0E06805280BD14B48006A40F092
:102D60000400494908620846006A40F00100086210
:102D70000AE04548006A20F001004349086208461D
:102D8000006A20F00400086200BFE068A0B1FFF70D
:102D90004DFB054609E0FFF749FB401B41F2883136
:102DA000884202D9032077E622E03748006A00F023
:102DB00002000028EFD012E0FFF738FB054608E0DC
:102DC000FFF734FB401B41F28831884201D90320D0
:102DD00062E62D48006A00F002000028F0D1012FC1
:102DE00005D12948C06920F080502749C86100BF3B
:102DF000E069C8B32448406800F00C00082860D09F
:102E0000E069022848D1002020490866FFF70EFB40
:102E1000054606E0FFF70AFB401B022801D9032004
:102E20003AE61948006800F000700028F2D1206AE4
:102E3000B0F5803F07D11448406820F40030A16805
:102E4000084311494860D4E9080108430E4949681C
:102E500021F4741108430C49486001200B490866AD
:102E6000FFF7E4FA054607E03DE0FFF7DFFA401B15
:102E7000022801D903200FE60348006800F0007023
:102E80000028F2D02FE00000001002400000424273
:102E90008004424200700040002014490866FFF799
:102EA000C5FA054606E0FFF7C1FA401B022801D922
:102EB0000320F1E50E48006800F000700028F2D110
:102EC00011E0E069012800D1E6E50948466806F40A
:102ED0008031206A814204D106F47011606A814217
:102EE00001D00120D8E50020D6E5000000004242D4
:102EF0000010024070B504462546681EB0F1807F80
:102F000001D301200FE0681E4FF0E02148610F213E
:102F10004FF0FF3001F0D8FC00204FF0E021886135
:102F200007200861002070BD7047704730B5024629
:102F30000B4600BF92F83C00012801D1022030BDB1
:102F4000012082F83C0000BF022082F83D0010689A
:102F500044681068816824F070041868044310689D
:102F60004460104D1068A8420BD01068B0F1804F3B
:102F700007D00D4D1068A84203D00C4D1068A84230
:102F800005D121F08001586801431068816001205B
:102F900082F83D0000BF002082F83C0000BF00BF67
:102FA000CDE70000002C0140000400400008004074
:102FB00010B504460CB9012010BD94F83D0028B9A5
:102FC000002084F83C00204600F026F8022084F817
:102FD0003D00211D206801F05BF8012084F84600C7
:102FE00000BF84F83E0001213F20015540200155DB
:102FF0004120015500BF00BF012084F8420043205A
:103000000155442001554520015500BF012084F899
:103010003D000020D0E7000038B504462068B0F13C
:10302000804F15D100BF0B48C06940F0010009492D
:10303000C8610846C06900F00100009000BF00BFF1
:10304000002211461C20FFF777FA1C20FFF764FAD4
:1030500038BD000000100240014691F83D000128F3
:1030600001D001207047022081F83D000868C06847
:1030700040F001000B68D860124B086898420BD0F2
:103080000868B0F1804F07D00F4B0868984203D012
:103090000E4B086898420CD10868806800F007025F
:1030A000062A0CD00868006840F001000B68186020
:1030B00005E00868006840F001000B681860002017
:1030C000D0E70000002C0140000400400008004050
:1030D0002DE9F04104460D4600BF94F83C0001285C
:1030E00002D10220BDE8F081012084F83C0000BF3D
:1030F000022084F83D002068866826F0770626F4D2
:103100007F46206886602868502833D00CDC202851
:1031100050D004DC00284BD0102851D149E0302891
:1031200049D040284CD139E060282DD0702807D0F4
:10313000B0F5805F03D0B0F5005F41D10DE040E015
:10314000D5E902136A68206800F0DCFF2068866811
:1031500046F077062068866033E0D5E902136A6896
:10316000206800F0CFFF2068806840F4804021682C
:10317000886026E0EA686968206800F0D7FF50217F
:10318000206800F0CAFF1CE0EA686968206800F067
:10319000E0FF6021206800F0C0FF12E0EA68696883
:1031A000206800F0C3FF4021206800F0B6FF08E06F
:1031B00000BF00BF00BF2968206800F0AEFF00E03C
:1031C00000BF00BF012084F83D0000BF002084F84C
:1031D0003C0000BF00BF85E7704710B5044620687B
:1031E0000069C0F34000D8B12068C068C0F3400057
:1031F000B0B16FF0020021680861012020772068DB
:10320000806900F0030018B12046FFF7E5FF05E0F4
:10321000204600F0ADF8204600F0ABF80020207703
:1032200020680069C0F38000D8B12068C068C0F38E
:103230008000B0B16FF0040021680861022020779F
:103240002068806900F4407018B12046FFF7C4FF81
:1032500005E0204600F08CF8204600F08AF80020B7
:10326000207720680069C0F3C000D8B12068C0682A
:10327000C0F3C000B0B16FF00800216808610420FD
:1032800020772068C06900F0030018B12046FFF7DE
:10329000A3FF05E0204600F06BF8204600F069F837
:1032A0000020207720680069C0F30010D8B12068A2
:1032B000C068C0F30010B0B16FF010002168086161
:1032C000082020772068C06900F4407018B12046BB
:1032D000FFF782FF05E0204600F04AF8204600F0A4
:1032E00048F8002020772068006900F0010058B1FC
:1032F0002068C06800F0010030B16FF00100216863
:103300000861204600F036F820680069C0F3C0105C
:1033100058B12068C068C0F3C01030B16FF08000B1
:10332000216808612046FFF7FFFD20680069C0F3AF
:10333000801058B12068C068C0F3801030B16FF0C1
:10334000400021680861204600F060F820680069AC
:10335000C0F3401058B12068C068C0F3401030B1CD
:103360006FF02000216808612046FFF7DEFD10BDE8
:103370007047704710B504462068B0F1804F37D1D0
:103380001C480068401C1B4908601B49498888424A
:1033900005D3002017490860012017490871174814
:1033A0000068401C154908601349C988884205D344
:1033B00000201249086001200F4908721048006877
:1033C000401C0F490860B0F5FA7F0FD30020086059
:1033D0000C480068401C0B490860B0F57A7F01D3A7
:1033E0000020086001210848FFF710F801F0BAFC3E
:1033F00010BD00001401002010040020180100205E
:103400000C010020100100200008014070477047A7
:1034100070B50446002520684069C0F3C01594F8D3
:103420003D0021280ED16DB12068406920F0800058
:1034300021684861606B10B1606BFEF768FC204644
:1034400000F0B1FF20684069C0F3801594F83E0099
:1034500022280ED16DB12068406920F0400021681B
:103460004861A06B10B1A06BFEF751FC204600F044
:103470006FFF002070BD70472DE9F84F04462068AB
:1034800005682068C668206847694FF00009CA4689
:1034900005F00F09B9F1000F0AD105F0200038B18D
:1034A00006F0200020B1204600F087FFBDE8F88F2D
:1034B000B9F1000F71D007F0010018B906F490704F
:1034C00000286AD005F0010030B106F4807018B110
:1034D000206C40F00100206405F0040030B107F0DA
:1034E000010018B1206C40F00200206405F00200D9
:1034F00030B107F0010018B1206C40F004002064E6
:1035000005F0080048B106F0200010B907F00100EE
:1035100018B1206C40F008002064206C68B305F0FE
:10352000200028B106F0200010B1204600F045FF31
:1035300020684069C0F3801A206C00F0080010B9C0
:10354000BAF1000F22D0204600F002FF2068406947
:1035500000F04000B0B12068406920F040002168D0
:103560004861A06B50B15648A16B4863A06BFEF751
:10357000F9FB10B1A06B416B88470CE02046FFF7C8
:103580007AFF08E02046FFF776FF04E02046FFF7C9
:1035900072FF0020206489E7FFE7206B012878D1C3
:1035A00005F01000002874D006F01000002870D03C
:1035B00000BF0020009020680068009020684068EC
:1035C000009000BF00BF2068406900F04000C0B319
:1035D000A06B006840681FFA80F8B8F1000F2FD088
:1035E000A08D40452CDDA4F82E80A06B806920289A
:1035F0001FD02068C06820F480702168C8602068EF
:10360000406920F00100216848612068406920F08D
:10361000400021684861202084F83E00002020639B
:103620002068C06820F010002168C860A06BFEF719
:103630006EFBA08DE28D801A81B22046FFF7E7FE77
:1036400034E7FFE7A08DE18D401A1FFA80F8E08D86
:10365000E8B1B8F1000F1AD02068C06820F490706B
:103660002168C8602068406920F001002168486135
:10367000202084F83E00002020632068C06820F0ED
:1036800010002168C86041462046FFF7C0FE0DE7E4
:10369000FFE705F0800030B106F0800018B1204649
:1036A00000F0C8FF02E705F0400030B106F040002E
:1036B00018B1204600F067FEF8E600BFF6E600000D
:1036C0006542000810B504460CB9012010BDA06980
:1036D00000B100E000BF94F83D0028B9002084F854
:1036E0003C00204600F028F8242084F83D002068A3
:1036F000C06820F400502168C860204600F0D0FE69
:103700002068006920F490402168086120684069C1
:1037100020F02A00216848612068C06840F4005009
:103720002168C86000202064202084F83D0084F8CF
:103730003E000020CAE7000010B586B00446002015
:10374000029003900490059056492068884251D118
:1037500000BF5548806940F480405349886108465D
:10376000806900F48040019000BF00BF00BF0846A0
:10377000806940F0040088610846806900F0040018
:10378000019000BF00BF4815029002200390032063
:10379000059002A94548FEF7A1FC4FF48060029015
:1037A000002003900120049002A94048FEF796FCF7
:1037B0003F48404908600020486000213D48816042
:1037C0008021C1600021016141618161C161FEF719
:1037D000EFFB08B1FDF769FF00BF3648A063446204
:1037E00000BF002211462520FEF7A6FE2520FEF789
:1037F00093FE55E030492068884251D100BF2A48E5
:10380000C06940F480202849C8610846C06900F4B6
:103810008020019000BF00BF00BF0846806940F0D3
:10382000080088610846806900F00800019000BF28
:1038300000BF08150290022003900320059002A902
:103840001E48FEF74BFC4FF40060029000200390EE
:103850000120049002A91948FEF740FC14482838BA
:1038600017490860002048600021154881608021C8
:10387000C1600021016141618161C161FEF798FB76
:1038800008B1FDF712FF00BF0D48A063446200BFFE
:10389000002211462720FEF74FFE2720FEF73CFEB0
:1038A00006B010BD00380140001002400008014081
:1038B00058000240BC02002000480040000C0140BB
:1038C0000003002070B504460D46164694F83E00ED
:1038D000202816D105B10EB9012070BD00BF94F8A3
:1038E0003C00012801D10220F7E7012084F83C00C8
:1038F00000BF0020206332462946204600F04EFEDD
:10390000EBE70220E9E7704770472DE9F84F0446DE
:103910000E46174699464FF0000A94F83D002028BD
:103920005AD106B117B90120BDE8F88F00BF94F84D
:103930003C00012801D10220F6E7012084F83C0078
:1039400000BF00202064212084F83D00FEF76EFDBA
:103950008246A784E784A068B0F5805F04D120691F
:1039600010B90025B04602E035464FF0000800BF10
:10397000002084F83C0000BF1BE053460022802159
:103980002046CDF8009000F085FE08B10320CBE77B
:1039900045B9B8F80000C0F308002168486008F194
:1039A000020803E02878216848606D1CE08C401E06
:1039B000E084E08C0028E0D15346002240212046DC
:1039C000CDF8009000F066FE08B10320ACE720209F
:1039D00084F83D000020A7E70220A5E7704700BF5C
:1039E000FEE7000010B5012240210948FEF718FD4E
:1039F000012280210648FEF713FD002280210448A1
:103A0000FEF70EFD002240210148FEF709FD10BD22
:103A1000000C014010B5012240210748FEF700FDCF
:103A2000002280210448FEF7FBFC0122802102488D
:103A3000FEF7F6FC10BD0000000C014010B501229D
:103A400040210448FEF7ECFC002240210148FEF72B
:103A5000E7FC10BD000C01400EB500200090019065
:103A600002901C481C49086081151B488160012197
:103A70000173002101754FF46021C16100201649D6
:103A80004860032114480161FDF752FF08B1FDF7BA
:103A90000CFE0120009001900720029069460E481C
:103AA000FDF792FE08B1FDF700FE022000900190A4
:103AB00069460948FDF788FE08B1FDF7F6FD0320C9
:103AC0000090019069460448FDF77EFE08B1FDF7BD
:103AD000ECFD0EBD002401407801002008B500BFB8
:103AE0001248406940F001001049486108464069A9
:103AF00000F00100009000BF00BF002211460B2023
:103B0000FEF71AFD0B20FEF707FD002211460D20DF
:103B1000FEF712FD0D20FEF7FFFC002211460F20DC
:103B2000FEF70AFD0F20FEF7F7FC08BD001002406B
:103B300000B585B00020019002900390049000BF72
:103B40002A48806940F00400284988610846806955
:103B500000F00400009000BF00BF00BF084680696D
:103B600040F0080088610846806900F00800009075
:103B700000BF00BF002201211D48FEF751FC0022BA
:103B80004FF2C0211B48FEF74BFC01200190029030
:103B9000002003900220049001A91548FEF79EFA28
:103BA00070200190002002900120039001A910488C
:103BB000FEF794FA4FF47240019001200290002029
:103BC00003900220049001A90A48FEF787FAC0205A
:103BD000019001200290002003900320049001A98D
:103BE0000448FEF77BFA05B000BD0000001002405B
:103BF00000080140000C014000B587B00020039090
:103C0000049005900690019002904FF08040144976
:103C100008603F20486000211148816040F2E73190
:103C2000C160002101618161FFF7C2F908B1FDF7B0
:103C30003CFD4FF48050039003A90948FFF748FA70
:103C400008B1FDF732FD00200190029001A904485F
:103C5000FFF76CF908B1FDF728FD07B000BD0000C3
:103C6000EC01002010B50B480B4908604FF4E1301F
:103C70004860002108488160C16001610C214161F8
:103C800000218161C161FFF71DFD08B1FDF70DFD48
:103C900010BD0000003801403402002010B50B4870
:103CA0000B4908604FF4E13048600021084881600A
:103CB000C16001610C21416100218161C161FFF797
:103CC00001FD08B1FDF7F1FC10BD00000048004007
:103CD0007802002000BFFEE700BFFEE770B50024B9
:103CE00018E004F1B000002100F061F9002108465D
:103CF00000F05DF90021102000F059F9002505E0E1
:103D00000121002000F053F9681CC5B2802DF7DBBB
:103D1000601CC4B2082CE4DB70BD000008B500BF15
:103D20004448806940F0080042498861084680693B
:103D300000F00800009000BF00BF012240213E4873
:103D4000FEF76EFB012280213B48FEF769FB142041
:103D5000FEF7B0F90021AE2000F029F90021084655
:103D600000F025F90021102000F021F90021402069
:103D700000F01DF90021B02000F019F90021812088
:103D800000F015F90021FF2000F011F90021A12019
:103D900000F00DF90021A62000F009F90021A8206B
:103DA00000F005F900213F2000F001F90021C820B2
:103DB00000F0FDF80021D32000F0F9F800210846BA
:103DC00000F0F5F80021D52000F0F1F80021802066
:103DD00000F0EDF80021D82000F0E9F800210520DE
:103DE00000F0E5F80021D92000F0E1F80021F120F1
:103DF00000F0DDF80021DA2000F0D9F800211220CF
:103E000000F0D5F80021DB2000F0D1F800213020AF
:103E100000F0CDF800218D2000F0C9F80021142019
:103E200000F0C5F80021AF2000F0C1F81420FEF723
:103E300041F908BD00100240000C014070B5044675
:103E40000D4605F1B000002100F0B1F8102141EA63
:103E50001410002100F0ABF804F00F00002100F076
:103E6000A6F870BD2DE9F04107460E461546002420
:103E700031463846FFF7E2FF00BF08E0104A02EB88
:103E80008511085D012100F092F8601CC4B2102C6D
:103E9000F4DB701CC1B23846FFF7D0FF00240BE002
:103EA000012101EB4501064A02EB4111085D0121A8
:103EB00000F07DF8601CC4B2102CF1DBBDE8F0818D
:103EC000040000202DE9F04707460E46904699462B
:103ED00000250024A8F12000C5B27F2F02DD0027B5
:103EE000B01CC6B2B9F1100F24D131463846FFF7E5
:103EF000A5FF002408E004EB0511194A505C0121DC
:103F000000F055F8601CC4B2082CF4DB701CC1B280
:103F10003846FFF793FF002409E004EB0511083150
:103F20000F4A505C012100F042F8601CC4B2082C1A
:103F3000F3DB12E031463846FFF780FF00240AE049
:103F400005EB4501074A02EB4101085D012100F044
:103F50002EF8601CC4B2062CF2DBBDE8F08700002E
:103F60000C590008E45600082DE9F04104460F46BC
:103F700015469846002615E0AA5D43463946204678
:103F8000FFF7A0FFB8F10C0F02D1A01DC4B202E0F0
:103F900004F10800C4B2782C02DD0024B81CC7B2BA
:103FA000701CC6B2A85D0028E6D1BDE8F08170B5EE
:103FB00004460D461DB1E0B200F054FC02E0E0B250
:103FC00000F03AFC70BD704708B508490968C90897
:103FD0004FF47A72B1FBF2F14143009100BF00BF90
:103FE00000994A1E00920029F9D108BD4C01002019
:103FF000704710B5FEF720FA10BD00B593B0282128
:1040000009A8FCF733FA142104A8FCF72FFA0020C2
:1040100000900190029003900220099001200D90E1
:1040200010200E9002201090002111914FF4601189
:10403000129109A8FEF72CFD08B1FDF736FB0F2001
:10404000049002200590002006904FF480600790B5
:1040500000200890022104A8FEF7E4FB08B1FDF758
:1040600024FB022000904FF4404002906846FEF787
:1040700041FB08B1FDF719FB13B000BD704700000C
:1040800010B50248FFF7A9F810BD0000EC010020B0
:1040900010B50268184B984208D0B0F1804F05D097
:1040A000164B984202D0164B984203D122F0700270
:1040B0004B681A43104B984208D0B0F1804F05D09E
:1040C0000E4B984202D00E4B984203D122F440721C
:1040D000CB681A4322F080034C6943EA0402026071
:1040E0008B68C3620B688362034B984201D10B69F2
:1040F00003630123436110BD002C01400004004014
:104100000008004030B50C46816821F47F4142EA46
:10411000032525432943816030BD0A46816821F08B
:10412000700142F0070319438160704730B50B46B8
:104130001446026A056A25F001050562816921F0CD
:10414000F00141EA041122F00A021A43816102627D
:1041500030BD30B50B461446056A25F010050562E2
:104160008169026A21F4704141EA043122F0A0021F
:1041700042EA03128161026230BD000038B5054693
:10418000184800680068C0F3001050B300BF00205A
:104190000090144800680068009012480068406869
:1041A000009000BF00BF0F48006804680D48006819
:1041B00044680C48FFF72CF90B4800684468C4F1C8
:1041C00064000A49088008460088411C0748801C92
:1041D000FCF72AF964220549891C0248FFF772FBA3
:1041E00000BF38BD34020020BC0200204403002080
:1041F00038B50546184800680068C0F3001050B391
:1042000000BF002000901448006800680090124829
:1042100000684068009000BF00BF0F480068046855
:104220000D48006844680C48FFF7F2F80B48006836
:104230004468C4F164000A49088008460088411CAB
:104240000748801CFCF7F0F864220549891C0248E5
:10425000FFF738FB00BF38BD7802002000030020C4
:10426000AA03002070B505466C6A0020E085E08452
:104270002046FFF700F970BD70B506460025746A48
:1042800020684069C0F3C01594F83D00212805D18D
:1042900025B10020E084204600F085F820684069C0
:1042A000C0F3801594F83E00222805D125B10020E6
:1042B000E085204600F04CF8206C40F010002064AF
:1042C0002046FFF7D8F870BD70B505466C6A2868BF
:1042D000006800F02000F8B90020E0852068C06880
:1042E00020F480702168C8602068406920F00100D7
:1042F000216848612068406920F0400021684861D9
:10430000202084F83E00206B012805D12068C06879
:1043100020F010002168C860206B012804D1A18D15
:104320002046FFF774F802E02046FFF7ECFA70BD74
:1043300070B505466C6A206B012805D1A08D410837
:104340002046FFF764F802E02046FFF7DDFA70BD73
:104350000168C96821F490710268D16001684969F7
:1043600021F0010102685161016B012905D1016849
:10437000C96821F010010268D160202180F83E1048
:1043800000210163704710B504462068C06820F022
:1043900040002168C860202084F83D002046FFF7D7
:1043A0001DFB002010BD0168C96821F0C001026832
:1043B000D160202180F83D107047F8B5044694F88C
:1043C0003E00222869D1A068B0F5805F0CD1206939
:1043D00050B90025A66A20684068C0F30800308004
:1043E000A06A801CA06215E0A56A0026A068B0F54E
:1043F000805F03D0A06828B9206918B92068406898
:10440000287004E02068406800F07F002870A06AEF
:10441000401CA062E08D401E80B2E085A8BB2068F1
:10442000C06820F020002168C8602068C06820F4BF
:1044300080702168C8602068406920F00100216810
:104440004861202084F83E00206B01281ED1002006
:1044500020632068C06820F010002168C8602068D0
:10446000006800F0100010280AD100BF0020009062
:1044700020680068009020684068009000BF00BF7E
:10448000A18D2046FEF7C3FF03E004E02046FFF7BE
:104490003AFA0020F8BD0020FCE70220FAE700000D
:1044A00070B504462168096921F44051E26811435E
:1044B000226811612269A1681143626941EA02051B
:1044C0002168C96841F20C62914329432268D16096
:1044D0002168496921F44071A26911432268516140
:1044E0002D4A2168914202D1FEF778FA01E0FEF7E9
:1044F00065FA00EBC00101EB001162689200B1FBAC
:10450000F2F100EBC00202EB001263689B00B2FB09
:10451000F3F26423B2FBF3F202EBC20303EB0212E9
:10452000A1EB8201322202EB01116422B1FBF2F114
:1045300001F0F00100EBC00202EB001263689B0087
:10454000B2FBF3F26423B2FBF3F201EB021200EBD5
:10455000C00101EB001163689B00B1FBF3F100EBBC
:10456000C00303EB00136668B600B3FBF6F36426E2
:10457000B3FBF6F303EBC30606EB0313A1EB8301D6
:10458000322303EB01116423B1FBF3F101F00F01BE
:1045900011442268916070BD0038014077B581B048
:1045A000044615460298A062A585002020642220BA
:1045B00084F83E001C48A16B88621C48A16BC8624D
:1045C0001B48A16B08630020A16B486302AE3268F0
:1045D0002368191D2B46A06BFDF71EFD00BF0020B0
:1045E000009020680068009020684068009000BF3C
:1045F00000BF00BF002084F83C0000BF2068C068F6
:1046000040F480702168C8602068406940F0010073
:10461000216848612068406940F040002168486195
:10462000002004B070BD0000C942000831430008FA
:1046300079420008014691F83D00212828D1886878
:10464000B0F5805F0BD1086948B90A6A1088C0F3D9
:1046500008000B685860086A801C086205E00B6A55
:10466000581C086218780B685860C88C401E80B2CD
:10467000C88458B90868C06820F080000B68D8600A
:104680000868C06840F040000B68D86000207047A0
:104690000220FCE72DE9F04104460D4617469846F6
:1046A000069E21E0701CF8B12EB1FDF7BFFEA0EB15
:1046B0000800B04218D92068C06820F4D070216882
:1046C000C8602068406920F001002168486120200E
:1046D00084F83D0084F83E0000BF002084F83C00D0
:1046E00000BF0320BDE8F081206800682840A84290
:1046F00001D1012000E00020B842D3D00020F1E732
:1047000010B50348FEF7B8FE0148FFF737FD10BDAE
:104710003402002010B50348FEF7AEFE0148FFF753
:1047200067FD10BD7802002000BFFEE72DE9FF5FA6
:104730001F49086800F010FF019000F0D5FE804688
:104740004FF066321B4B00F0D1FD064600221A4B9B
:1047500000F0CCFD0022194BCDE9020100F0C6FDAE
:1047600004460022164B00F069FC824600F034FC3F
:104770001449086014480078401C14490860084631
:104780000068012811D112490E48006800F077FF37
:1047900005D2012251030F48FDF742FE05E0002239
:1047A0004FF400510B48FDF73BFEBDE8FF9F0000B2
:1047B0002004002066664A3F00408F4000002C40E5
:1047C000000022403C01002010040020380100209D
:1047D0000000FA44000C01402DE9F04105462C464A
:1047E000002240211348FDF71BFE00261DE027464E
:1047F00007F08007802F05D1012280210D48FDF7A9
:104800000FFE04E0002280210A48FDF709FE600641
:10481000040E012240210748FDF702FE002240213C
:104820000448FDF7FDFD701CC6B2082EDFDBBDE8B5
:10483000F0810000000C014010B50446FFF7D2F8EB
:104840007820FFF7C9FFFFF7F9F80020FFF7C4FF52
:10485000FFF7F4F82046FFF7BFFFFFF7EFF8FFF789
:10486000D9F810BD10B50446FFF7BCF87820FFF763
:10487000B3FFFFF7E3F84020FFF7AEFFFFF7DEF8E6
:104880002046FFF7A9FFFFF7D9F8FFF7C3F810BDDF
:10489000490050EAC12018BF04204A0D18BF40F05B
:1048A000010040F2FF72B2EB515F08BF40F002001E
:1048B000012808BF0520704702480068C0F30220A5
:1048C000704700000CED00E010B5002804DB0A077B
:1048D000130E054A135406E00A07140E034A00F0AB
:1048E0000F031B1FD45410BD00E400E018ED00E0DE
:1048F00030380A2801D2012070470020704700BFDD
:104900007047000013B50C460A230122694602488D
:10491000FEF7FBFF00981CBD340200202DE9FC5F70
:104920008246BAF1030F33DA5348407A38B90AF1B4
:104930000101C8B200F0E4FA01204F4948724F4922
:1049400031F81A0000F008FE834600F0CDFD4FF06C
:1049500066324B4BCDE9000100F0C8FC0646002250
:10496000484B00F0C3FC04460022474B00F066FBB6
:104970000AF1010345A2CDE9000114214748FBF7E4
:1049800061FC1023454A04210F20FFF7EDFA71E086
:10499000BAF1030F6ED13949088800F0DDFD834676
:1049A00000F0A2FD4FF06632354BCDE9000100F07A
:1049B0009DFC80460022334B00F098FC0646002206
:1049C000314B00F03BFB36A2CDE900011421384801
:1049D000FBF738FC1023364A00210F20FFF7C4FAFA
:1049E0002649488800F0B8FD834600F07DFD064664
:1049F0004FF06632224B00F079FC0022214BCDE9CA
:104A0000000100F073FC804600221F4B00F016FBF3
:104A100028A2CDE9000114212548FBF713FC10233F
:104A2000234A03210F20FFF79FFA1449888800F0DA
:104A300093FD834600F058FD4FF06632104BCDE9F0
:104A4000000100F053FC804600220E4B00F04EFCAB
:104A5000064600220C4B00F0F1FA1AA2CDE9000143
:104A600014211348FBF7EEFB1023114A06210F20F7
:104A7000FFF77AFABDE8FC9F100400200401002033
:104A800066664A3F00002C4000002240564F4C25ED
:104A9000643A2025302E3366560000005001002075
:104AA000564F4C313A2025302E3366560000000018
:104AB00064010020564F4C323A2025302E33665682
:104AC00000000000564F4C333A2025302E336656F6
:104AD000000000008AB0FDF7BBFCFFF78EFAFFF77D
:104AE00027F8FEF7FBFFFEF7B7FFFFF7BBF8FFF76E
:104AF000D5F8FFF781F88348FCF7DAFD3C228249BC
:104B00008048FDF70FF88148FEF7A6FA8048006854
:104B1000C06840F010007E490968C86064227D4981
:104B20007B48FEF7CFFE7C480068C06840F010006C
:104B300079490968C860642278497748FEF7C2FE5F
:104B40006420FDF7B7FAFFF7E9F8FFF7C7F81E2072
:104B5000734948806420C880D3E07148807A88B166
:104B600000206F49887208460078401C087008468B
:104B70000078022801DD00200870FFF7AFF8002060
:104B8000674948726648C07A30B100206449C872EB
:104B900003200870FFF7A2F86148007A28B10020CE
:104BA0005F4908720878FFF7B9FE5D480079002870
:104BB0007ED0012211035B48FDF732FC00205849EA
:104BC000087108460078032826DA4F49086800F083
:104BD000C3FC079000F088FC80464FF06632524BD1
:104BE00000F084FB0022514BCDE9080100F07EFB70
:104BF000064600224E4B00F079FB044600224D4B46
:104C000000F01CFA82460B4645480078411C52468B
:104C100049A0FBF70BFB6CE041480078032868D102
:104C20003949886800F098FC039000F05DFC8246EA
:104C30004FF066323C4B00F059FB804600223B4B64
:104C400000F054FB06460022394B00F04FFB0446AF
:104C50000022384B00F0F2F9CDE908012A494868F2
:104C600000F07AFC039000F03FFC80464FF0663283
:104C70002D4B00F03BFB064600222C4B00F036FB90
:104C8000044600222A4B00F031FB82460022294BC9
:104C900000F0D4F9CDE906011B49086800F05CFC7E
:104CA000039000F021FC82464FF066321E4B00E07C
:104CB00025E000F01BFB804600221C4B00F016FB99
:104CC000064600221A4B00F011FB04460022194B45
:104CD00000F0B4F9CDE90401DDE90801CDE90201F4
:104CE000DDE90601CDE9000117A0DDE90423FBF7AA
:104CF0009DFA00224FF480510A48FDF791FBFFF71F
:104D000015FD2AE77801002020040020EC01002096
:104D1000340200204603002078020020AC0300206B
:104D200010040020000C014066664A3F00408F409E
:104D300000002C40000022403C636825643E3A2578
:104D4000302E30660D0A00003C616C6C3E3A253016
:104D50002E30662C25302E30662C25302E30660DF8
:104D60000A00000010B540215648FDF747FB5649A0
:104D7000088056480088012805D10846008810B9E7
:104D800001205349088051480088A8B94E4800883E
:104D9000012811D100204E4908804E48008814286F
:104DA00007DB4C480088B0F5FA6F02DA01204A4967
:104DB000887200204749088043480088434908809A
:104DC00043480088012804D142480088401C4149DA
:104DD000088020213B48FDF711FB404908804048EE
:104DE0000088012805D10846008810B901203D49F6
:104DF00008803B480088A8B938480088012811D1AC
:104E0000002038490880384800880A2807DB3648DF
:104E10000088B0F5FA6F02DA01202F49C87200202D
:104E2000314908802D4800882D4908802D48008888
:104E3000012804D12C480088401C2B4908801021EF
:104E40002048FDF7DBFA2949088029480088012815
:104E500005D10846008810B9012026490880244859
:104E6000008800BB2148008801281CD1002021496E
:104E70000880214800880A2812DB1F480088B0F506
:104E8000FA6F0DDA1D480078401C1C49087008466E
:104E90000078032801DB0020087000200E494872CA
:104EA00000201549088011480088114908801148E0
:104EB0000088012804D110480088401C0E49088051
:104EC00010BD000000080140200100201E0100204C
:104ED0001C010020220100201004002028010020D5
:104EE00026010020240100202A010020300100209A
:104EF0002E0100202C01002032010020350100206D
:104F00002DE9F041074614251426012421462846A0
:104F10000022FEF7A7FF2146A8190122FEF7A2FFF3
:104F2000012F04D0022F0BD0032F1BD111E0E1B2CF
:104F3000AA191432D0B2102319A2FFF715F81AE0FB
:104F4000E1B2AA191432D0B2102316A2FFF70CF85E
:104F500011E0E1B2AA191432D0B2102312A2FFF765
:104F600003F808E0E1B2AA191432D0B210230CA25F
:104F7000FEF7FAFF00BF00BFE1B205EB46020A32BE
:104F8000D0B20222FEF76EFFE1B206EB46022A44DF
:104F90000A32D0B20322FEF765FFBDE8F0810000BF
:104FA00031000000320000003300000010B500297D
:104FB0000AD00878002807D005487844FBF754FE4B
:104FC000002801D0002010BD0248784410BD000028
:104FD000D2100000CA10000021F00042A2F160527D
:104FE000B2F5801F01F0004328BFD2F17F6C0BD9CE
:104FF0005FEA001C43EAC20242EB507018BF7047E0
:1050000028BF20F001007047B2F5801FBCBF1846D2
:1050100070474FEA410C1CF5001F02D2084600F011
:1050200029BB70B500F00CFA00000089FFF7F6BF4D
:105030004FF00040A0F58000704700002DE9C0410E
:1050400030B4DFF8A0C23CEA111418BF3CEA1314D4
:1050500000F0EC8081EA03051CEA111444EAD574DF
:1050600018BF1CEA131500F0C780A4EB05044FF02D
:10507000004545EAC12145EAC32341EA505143EACC
:10508000525304F17F74994204F500344FEAC02072
:105090004FEAC22208BF904200F09C804FEA13659D
:1050A0000FF24016765D4FEA134506FB05F7C7F190
:1050B000807706FB07F74FEAD737A7FB03687642EE
:1050C000C8F58038A7FB06CE38BFA8F1010807FB5A
:1050D00008E64FF0000EA6FB028CE6FB03CEDCF1E7
:1050E000000CCEF1004E38BFAEF1010EA6FB0C58FD
:1050F0004FF000074FF00005E6FB0E87A1FB08C646
:10510000A0FB07CE16EB0E0645F10005E1FB076597
:1051100015F1E04E7EBFA4F580345FEA46066D418E
:1051200016F1800745F100054FEA17274FEA06669A
:1051300047EA0567A6F1DE46B6F1805F4FEA15251E
:105140001FD9384624F0010C05EBC471BCF1FE6F89
:1051500001EB0C1102D8F0BCBDE8008124425CBF19
:1051600001F5801E9EEAC47F02D4F0BCBDE8008138
:10517000244238D4F0BCA1F1C041BDE8004100F0A8
:10518000ADB94FEAD22242EA43524FEAD323A7FBFA
:1051900002864FEAD02040EA415007FB03661EEA30
:1051A0000E0F4FEAD12105FB026658BFA6EB005651
:1051B000B6EB00564FEA520E4EEAC37E18EB0E0EC7
:1051C00056EB530EBDD518EB02085E417F1C55F11E
:1051D0000005B6E74FF480154FF000074FF00006CA
:1051E0004FF00008ADE7F0BC4FF0000001F1C04106
:1051F00001F00041BDE8008111EA0C1F0CEA131513
:1052000000D00CE013EA0C1F00F025804FF00000E6
:10521000F0BC81EA030101F00041BDE80081F0BC6F
:10522000BDE8004181EA030100F058B9F0BCBDE8D7
:10523000004170B500F004F9097EFC3E00F007B8AB
:1052400081EA03014FF0000001F00041704781EA5C
:10525000030100F043B9F0BCBDE800414FF000008D
:1052600021497047FFFDFBF9F7F5F4F2F0EEEDEBA5
:10527000E9E8E6E4E3E1E0DEDDDBDAD8D7D5D4D354
:10528000D1D0CFCDCCCBCAC8C7C6C5C4C2C1C0BFA0
:10529000BEBDBCBBBAB9B8B7B6B5B4B3B2B1B0AFA6
:1052A000AEADACABAAA9A8A8A7A6A5A4A3A3A2A18A
:1052B000A09F9F9E9D9C9C9B9A9999989797969545
:1052C00095949393929191908F8F8E8E8D8C8C8BE1
:1052D0008B8A898988888787868585848483838269
:1052E000828181800000FF070000F87FDFF848C15D
:1052F00070B51CEA111E1EBF1CEA13159EEA0C0FA6
:1053000095EA0C0F00F06F8081EA030423EA4C1346
:105310004EEAD47E21EA4C1141F4801143F480130B
:10532000AE44A1FB024CA0FB0365AEF17F7E3619B3
:1053300055EB0C05A1FB034C4CF10003A0FB021C38
:1053400016EB0C06654153F10003094218BF46F005
:10535000010613F4007F0BD14FEA03314FEA053009
:10536000340341EA155140EA16506FF003020AE097
:105370004FEAC3214FEAC520F40241EA555140EA01
:1053800056506FF0020202EB2E4201EB025585EA05
:10539000CE710AD05FEA440C18BF24F0004450F1EB
:1053A000000041F1000120EAD47040F2FE7C624529
:1053B00000D270BDA84214BF4FF080444FF040446B
:1053C000002E08BF0024BEF1806FA8BFA1F1C0412C
:1053D000BDE8704080F282804FF0000001F1C041D2
:1053E00001F0004170479EEA0C0F0CEA131518BF3C
:1053F00095EA0C0F06D04FF0000081EA030E0EF084
:10540000004170BD00F01CF88900013E00F007B8B3
:1054100000F009B84FEA430C5FEA5C5C08D081EA0F
:10542000030100F05BB84FEA410C5FEA5C5CF6D127
:105430004FF00000014970470000FF070000F87FAF
:105440000EF1020E2EF0030E5EF8046B364205D408
:10545000012A43EB030515F5001F12D8012841EB83
:10546000010C1CF5001F0CD80ED14FEAD17C15F5AC
:10547000001F0CEB4C0C0CF1020C08BF4CEBD37C66
:1054800004E04FF0080C01E04FEAD37C0CEB4C0534
:1054900026FA05F606F00706B6F1040C06D20EEB66
:1054A000860CBDE870404CF0010C6047DFE80CF062
:1054B000090B02024FF000414FF00000A1F500215E
:1054C00070BD19461046012851EB010418BFD4F5F0
:1054D000001484BF002001F0004170BD0808A0F551
:1054E00000114FEA3101704743004FEAD30C4FEAF5
:1054F0003C0C43401FBF40070CF1605113F0FE4FBE
:1055000070471CF0006F03D100200CF00041704781
:105510000CF0004343EA507010B540EACC0000F0B4
:1055200063F800BF000000924FEA0001FFF7D6BF0A
:105530004FF000414FF00000A1F5002170474010EE
:1055400058BFC0F14040491058BFC1F140418142AD
:10555000EFF3008070470000B0FA80F310FA03F216
:10556000C3F19D030AD0D90501EB1220530638BFC1
:10557000704700F1010008BF20F0010070470000F3
:1055800050EA010C00F113801CF5000F58BFBCF568
:10559000000F01D48842704707D710F5000F58BF9D
:1055A00011F5000F15D488427047894270471CF5E9
:1055B000000F04D5BCF5000FF7D5814270474FF0BE
:1055C000807C1CEB400F38BF1CEB410F01D28142A5
:1055D000704710B500F008F8922449004FF00050D1
:1055E0004FF08051FFF7ABBF0EF1020E2EF0030E0D
:1055F0005EF8044B244204D44FEA4102B2F17F4FDB
:1056000011D84FEA4003B3F17F4F0CD80ED14FEAC7
:10561000D07CB2F17F4F0CEB4C0C0CF1020C08BFAC
:105620004CEBD17C04E04FF0080C01E04FEAD17C58
:105630000CEB4C0324FA03F404F00704B4F1040C5B
:1056400006D20EEB840CBDE810404CF0010C604714
:10565000DFE80CF0070802024FF00040A0F58000E0
:1056600010BD0846420018BFD2F1807288BF00F01A
:10567000004010BDFF2141EAD050C005704751EAFB
:10568000000C00F113801CF5000F58BFBCF5000F93
:1056900001D48142704707D711F5000F58BF10F5AC
:1056A000000F15D481427047894270471CF5000FE6
:1056B00004D5BCF5000FF7D5884270474FF0807CC9
:1056C0001CEB410F38BF1CEB400F01D288427047E2
:1056D00080EA010081EA000180EA0100FFF779BF5A
:1056E000FBF721B80000000000000000002F0000C0
:1056F00000000700070000147F147F1400242A7F95
:105700002A12006264081323003649552250000013
:105710000503000000001C224100000041221C0083
:105720000014083E08140008083E0808000000A005
:105730006000000808080808000060600000002001
:1057400010080402003E5149453E0000427F4000DF
:10575000004261514946002141454B310018141265
:105760007F10002745454539003C4A494930000132
:105770007109050300364949493600064949291E81
:1057800000003636000000005636000000081422E3
:1057900041000014141414140000412214080002E3
:1057A0000151090600324959513E007C1211127C08
:1057B000007F49494936003E41414122007F414135
:1057C000221C007F49494941007F09090901003E27
:1057D0004149497A007F0808087F0000417F410065
:1057E000002040413F01007F08142241007F4040DB
:1057F0004040007F020C027F007F0408107F003EC3
:105800004141413E007F09090906003E4151215EA8
:10581000007F091929460046494949310001017FA5
:105820000101003F4040403F001F2040201F003F3B
:105830004038403F006314081463000708700807ED
:1058400000615149454300007F41410000552A5500
:105850002A55000041417F0000040201020400407B
:10586000404040400000010204000020545454789D
:10587000007F4844443800384444442000384444BD
:10588000487F00385454541800087E09010200185B
:10589000A4A4A47C007F080404780000447D400098
:1058A000004080847D00007F102844000000417F7C
:1058B0004000007C04180478007C08040478003858
:1058C0004444443800FC242424180018242418FCE0
:1058D000007C0804040800485454542000043F4449
:1058E0004020003C4040207C001C2040201C003C0C
:1058F0004030403C004428102844001CA0A0A07C5C
:10590000004464544C441414141414140000000093
:10591000000000000000000000000000000000F88F
:1059200000000000000000333000000000100C06F2
:10593000100C0600000000000000000040C078408D
:10594000C0784000043F04043F040400007088FC59
:1059500008300000001820FF211E0000F008F000B1
:10596000E018000000211C031E211E0000F0088822
:10597000700000001E2123241927211010160E008C
:10598000000000000000000000000000000000E037
:10599000180402000000000718204000000204184C
:1059A000E00000000040201807000000404080F0A8
:1059B000804040000202010F01020200000000F0DE
:1059C000000000000101011F0101010000000000B2
:1059D0000000000080B07000000000000000000027
:1059E00000000000000101010101010100000000B0
:1059F0000000000000303000000000000000000047
:105A000080601804006018060100000000E0100823
:105A10000810E000000F102020100F00001010F8F8
:105A2000000000000020203F202000000070080837
:105A300008887000003028242221300000300888B7
:105A4000884830000018202020110E000000C020DF
:105A500010F8000000070424243F240000F8088800
:105A6000880808000019212020110E0000E010888D
:105A700088180000000F112020110E0000380808BF
:105A8000C83808000000003F0000000000708808CF
:105A900008887000001C222121221C0000E0100850
:105AA0000810E0000000312222110F00000000C0A9
:105AB000C000000000000030300000000000008046
:105AC0000000000000008060000000000000804036
:105AD000201008000001020408102000404040404F
