:020000040800F2
:100000002007002005010008632A0008492800088D
:10001000612A0008DD0900085931000800000000CD
:100020000000000000000000000000008D2A000811
:10003000310A000800000000652A00088F2A000825
:100040001F0100081F0100081F0100081F01000810
:100050001F0100081F0100081F0100081F01000800
:100060001F0100081F0100081F010008E109000826
:100070001F010008ED0900081F010008F909000828
:100080001F0100081F0100081F0100081F010008D0
:100090001F0100081F0100081F0100081F010008C0
:1000A0001F0100081F0100081F0100081F010008B0
:1000B0000D2B00081F0100081F0100081F01000888
:1000C0001F0100081F0100081F0100081F01000890
:1000D0001F010008293100081F01000841310008F4
:1000E0001F0100081F0100081F010008DFF810D0E1
:1000F00000F03CFB00480047053B0008AFF30080E0
:10010000200700200648804706480047FEE7FEE734
:10011000FEE7FEE7FEE7FEE7FEE7FEE7FEE7FEE7B7
:100120000B2B0008ED000008202A04DB203A21FAFE
:1001300002F00021704721FA02F3D040C2F1200200
:100140009140084319467047D2B201E000F8012BF4
:10015000491EFBD270470022F6E710B513460A4647
:1001600004461946FFF7F0FF204610BD30B505469E
:100170000020034600E05B1C934205D2EC5CC85CA7
:10018000201A01D1002CF6D130BD70B5064603F01F
:1001900005F8046805460A220021304600F0D3F82D
:1001A0002C6070BD2DE9FE4F81EA030404F0004489
:1001B00021F0004100944FF0000B23F0004350EA7F
:1001C00001045ED052EA03045BD0C3F30A54C1F3C6
:1001D0000A552C44A4F2F3340194A0FB0254C1F359
:1001E000130141F48011C3F3130343F4801301FBA3
:1001F000024400FB034E840A970A44EA815447EA0A
:100200008357A4FB076802958D0A05FB07854FEA13
:10021000932C04FB0C542705029D4FEA065847EA2D
:100220001637B5EB08056EEB070C870E920E47EA02
:10023000811742EA8312A7FB0201B6EB0B0164EBC4
:1002400000042B0D43EA0C335E1844EB1C50DA46D5
:100250005146E7FB0201C5F313044FEA0B3343EAAF
:1002600014534FEA0432019C43EA0603A4F10C0440
:100270000294009CCDE900B400F0E3F803B0BDE8BF
:10028000F08F00200146F9E796230022114600F086
:100290009BB800F0004230F000400AD0C10D01F5DB
:1002A0006071C0F3160042EA0151C20840071143D1
:1002B000704700200146704730B50B4601460020CC
:1002C0002022012409E021FA02F59D4205D303FA18
:1002D00002F5491B04FA02F52844151EA2F1010299
:1002E000F1DC30BD2DE9F05F0546002092469B46CB
:1002F00088460646814640241BE02846414647463C
:100300002246FFF711FF53465A46C01A914110D3B7
:1003100011461846224600F03BFA2D1A67EB0108F9
:100320004F4622460120002100F032FA17EB000967
:100330004E41201EA4F10104DFDC484631462A4626
:100340004346BDE8F09F2DE9F04791460F468046B1
:100350000446002614F8015B2DB100F03BFA00685A
:10036000405DC007F6D12B2D02D02D2D18D0641E74
:100370004A463946204600F031FA27B13968A14291
:1003800001D1C7F8008071054FF002040BD540423F
:10039000002803DD02F002FF0460A007BDE8F0873B
:1003A00046F48066E4E70028F8DA02F0F7FE04601D
:1003B0006FF00040F2E70029A8BF7047401C4900D9
:1003C00008BF20F00100704710B4B0FA80FC00FABA
:1003D0000CF050EA010404BF10BC704749B1CCF1E5
:1003E000200421FA04F411FA0CF118BF0121214371
:1003F0000843A3EB0C01CB1D4FEA00614FEA10202C
:1004000042BF002010BC704700EBC35010440029CD
:10041000A4BF10BC7047401C490008BF20F0010079
:1004200010BC704710B5141E73F1000408DA401CAC
:1004300041F1000192185B411A4301D120F0010003
:1004400010BD2DE9F04D92469B4611B1B1FA81F2F3
:1004500002E0B0FA80F22032904600F099F90446AA
:100460000F4640EA0A0041EA0B0153465A46084348
:1004700013D0114653EA010019D0C8F1400250468A
:10048000FFF752FE05460E4650465946424600F0DA
:100490007FF9084305D0012004E020463946BDE835
:1004A000F08D0020054346EAE0762C4337430A9856
:1004B0006305E40AA0EB08000022FD0A44EA475461
:1004C0000A3002D500200146E9E70105101969410B
:1004D000DDE9084500196941BDE8F04DA2E72DE9C5
:1004E000FE4F804681EA0300C00F0C46009021F0C9
:1004F000004123F00045B8EB0200A94105D2404677
:10050000214690461C460B46024623F0004010430D
:1005100047D0270DC7F30A00C3F30A510290401ACF
:10052000019040286BDAC3F3130040F4801B00985D
:10053000924620B10023D2EB030A63EB0B0B019828
:100540005946C0F14002504600F022F906460D46D9
:1005500050465946019A00F02AF910EB0800614113
:10056000002487EA115284EAE7731A4340D0009AC4
:1005700062B3019A012A4FEA075215DC001B61EBB6
:1005800002014FF0004202EA0752CDE90042001C8E
:1005900041F5801132462B46FFF753FF03B0BDE80B
:1005A000F08F40462146F9E7001B61EB0201001C79
:1005B00041F5801300185B412018A2F5001747EBA6
:1005C000030140EAD570B6196D4111E06D084FEA9C
:1005D000360645EAC0754FEA0752001B61EB02017F
:1005E000001C41F5801149084FEA300000195141C3
:1005F00032462B4603B0BDE8F04FFFF713BF00981B
:10060000012240000023D0EB020263EBE07300986C
:1006100021464FEAE074B8EB000061EB0401E9E722
:1006200083F000435BE781F0004158E72DE9F04D8E
:1006300081EA030404F0004B21F0004514464FF01A
:10064000000A23F0004150EA050220D054EA0102DA
:100650001DD0C5F30A570246C5F31303C1F31300B7
:10066000C1F30A5640F4801543F48013A7EB060843
:10067000101BD64608F2FD3873EB050002D308F1D3
:10068000010801E092185B41B8F1000F03DA002085
:100690000146BDE8F08D00204FF4801106468446E7
:1006A0000EE0171B73EB050705D3121B63EB050365
:1006B00006434CEA010C49084FEA300092185B41AE
:1006C00050EA0107EDD152EA030012D082EA040099
:1006D00083EA0501084305D0101BAB4106D2012275
:1006E000002306E000224FF0004302E06FF0010219
:1006F00053101AEB06004CEB085110EB0A0041EBCB
:100700000B01BDE8F04DFFF78DBEC1F30A52C1F3F6
:10071000130140F2FF3341F480119A4202DA0020C3
:100720000146704740F233439A42A2F2334202DC60
:100730005242FFF7F9BC00F02BB8000030B5041EA0
:1007400071F1000404DB4FF00044404264EB01010E
:10075000141E73F1000405DB1C464FF000435242A7
:1007600063EB0403994208BF904230BD064C074D2D
:1007700006E0E06840F0010394E807009847103471
:10078000AC42F6D3FFF7B6FC3C4300085C430008DC
:10079000202A04DB203A00FA02F100207047914041
:1007A000C2F1200320FA03F3194390407047202A36
:1007B00006DBCB17203A41FA02F043EAE07306E089
:1007C00041FA02F3D040C2F1200291400843194699
:1007D0007047000000487047384300082DE9F05F7B
:1007E00082460078002715468B460AF10104B94677
:1007F000302801D09DB113E014F8010B01277828AF
:1008000003D0582801D045B10AE00DB1102D07D111
:100810000027102514F8010B02E0082500E00A2546
:100820000026B0460EE005FB080005FB06F1012797
:1008300001EB10461FFA80F8B6F5803F00D3B946A9
:1008400014F8010B294600F018F80028EBDABBF188
:10085000000F05D00FB1641E00E05446CBF80040F5
:10086000B9F1000F06D002F099FC02210160C81E08
:10087000BDE8F09F48EA0640FAE73A2800D230384F
:1008800020F02002412A01D3A2F13700884201D38F
:100890004FF0FF30704770B5044620688168C94347
:1008A000C90716D1816821F00101816000F014FFB1
:1008B000054609E000F010FF401B022804D920681B
:1008C0008068C043C00706D020688068C043C00766
:1008D000F0D0002070BDA06A40F01000A062E06A75
:1008E00040F00100E062012070BD10B50146486A89
:1008F000826A12F0500F05D0006A026BBDE810400A
:1009000008461047816A41F4007181620168896874
:10091000C1F3424107290CD1017B51B9816A21F40D
:1009200080718162816AC90403D4816A41F0010146
:10093000816200F009FA10BD10B5406A816A41F089
:1009400040018162C16A41F00401C16200F0FEF918
:1009500010BD10B5406A00F0F8F910BDF8B50446B6
:100960000026009620688168C943C9072FD0816896
:1009700041F001018160174817490068B0FBF1F0B0
:10098000009002E00098401E009000980028F9D1E5
:1009900000F0A2FE054615E000F09EFE401B022876
:1009A00010D920688068C043C0070BD0A06A40F00F
:1009B0001000A062E06A40F00100E06284F8246068
:1009C0000120F8BD20688068C043C007E4D1002042
:1009D000F8BD00002000002040420F00FEE70000AC
:1009E000014800F099BB000030020020014800F0EF
:1009F00093BB0000B8020020014800F08DBB00004E
:100A00007402002030B590F840500124AC40C56B12
:100A10006C60046863604368102B04D003689960BD
:100A20000068C26030BD03689A600068C16030BD74
:100A3000704772B6FEE7000006490020C86106480C
:100A4000016941F004010161016941F04001016166
:100A5000704700000003002000200240064A0021E9
:100A6000D16106490A6942F002020A6148610869D7
:100A700040F0400008617047000300200020024061
:100A8000044B0022DA61044A136943F00103136145
:100A9000018070470003002000200240002014491C
:100AA000CA68D306134A04D5D06940F00200D06169
:100AB0001020CB685B0705D5D36943F00103D361F0
:100AC00040F00400CB69DB0707D0D36943F004038F
:100AD000D361CA6922F00102CA61A0F58072013AAD
:100AE00001D0C8607047C86920F00100C861704734
:100AF000002002400003002070B5044600F0ECFD29
:100B00000546114E09E0601C07D024B100F0E4FD59
:100B1000401BA04201D9032070BDF068C007F2D18C
:100B2000F068800601D52020F060F068C00605D48A
:100B3000F069C00702D1F068400703D5FFF7AEFFA8
:100B4000012070BD002070BD00200240F8B50446B1
:100B50000026009694F8240001280CD0012084F887
:100B600024002046FFF797FE2046FFF7F7FE0746D2
:100B7000380002D05DE00220F8BDA06A20F4885061
:100B800040F00200A062022000F046FE2B490968F6
:100B9000B1FBF0F04000009002E00098401E009091
:100BA00000980028F9D12068816841F0080181602F
:100BB00000F092FD054612E000F08EFD401B0A2871
:100BC0000DD920688068000709D5A06A20F00200CE
:100BD00040F01000A06284F824600120F8BD206875
:100BE00080680007E8D42068816841F004018160D2
:100BF00000F072FD054612E000F06EFD401B0A2871
:100C00000DD920688068400709D5A06A20F002004D
:100C100040F01000A06284F824600120F8BD206834
:100C200080684007E8D4A06A20F0020040F001008C
:100C3000A06284F824603846F8BD0000200000203F
:100C4000F8B500230025009590F82420012A12D041
:100C5000012280F824204A681F26072A0DD2046842
:100C6000676B521E02EB82029640B7430E689640B5
:100C7000374367631AE00220F8BD0D2A0BD20468DF
:100C8000276BD21F02EB82029640B7430E68964054
:100C9000374327630AE00468E76A0D3A02EB8202F1
:100CA0009640B7430E6896403743E7620A680726C6
:100CB0000A2A0BD30468E7680A3A02EB420296401C
:100CC000B7438E6896403743E76009E004682769B8
:100CD00002EB42029640B7438E6896403743276145
:100CE0000A68102A01D0112A23D1144C0268A242AA
:100CF0001AD1946824021CD4946844F400049460CB
:100D00000968102915D10E490E4A0968B1FBF2F1A4
:100D100001EB81014900009102E00099491E009118
:100D200000990029F9D104E0816A41F02001816233
:100D3000012380F824501846F8BD0000002401402B
:100D40002000002040420F007047704770470000AD
:100D50002DE9F041044600270025002C03D0A06AAD
:100D6000002618B108E00120BDE8F081E66284F8B1
:100D70002460204600F078F82046FFF78CFDA16A39
:100D8000C90600D428B1A06A40F01000A06201207A
:100D9000EAE7A16A21F4885141F00201A162626888
:100DA000E169237B0A4347EA43010A43A1684FF400
:100DB0008077B94208D0012906D0002194F814C0E8
:100DC000BCF1010F02D00AE03946F7E7F3B1A36A9C
:100DD00043F02003A362E36A43F00103E362236864
:100DE000D3F804C02CF4694C4CEA010CC3F804C0DD
:100DF00021688B68DFF868C003EA0C0313438B603B
:100E0000A168B94209D0012907D009E0A3695B1E96
:100E100041EA433141F40061E1E7218A491E0D05B1
:100E20002168CB6A23F470032B43CB622168896865
:100E30000C4B1940914207D1E662A16A21F00201F0
:100E400041F00101A1628FE7A06A20F0020040F0AA
:100E50001000A062E06A40F00100E062012083E738
:100E6000FDF7E1FFFE0E1FFF70B586B006460024B9
:100E700002940394049405942149306888423CD13B
:100E80002049886940F400708861886900F4007026
:100E90000190886940F004008861886900F00400CE
:100EA0000190886940F008008861886900F00800B6
:100EB0000190FF2002900325039502A9124800F03B
:100EC00003FB0295039502A9104800F0FDFA114DAD
:100ED0000F4828606C60AC608020E86040002861AA
:100EE000C00068612020A861EC61284600F0C8F9C4
:100EF00008B1FFF79EFD35626E6206B070BD00005E
:100F0000002401400010024000080140000C014094
:100F100008000240300200202DE9F04704468946CF
:100F20009246DFF8008120683F4F08F104064045F3
:100F300001D0B84207D1306810F4702F03D00125DA
:100F40002846BDE8F08794F8240001280BD0012042
:100F500084F824002046FFF701FD0546002125B155
:100F600084F82410ECE70220EBE7A06A40F6016267
:100F7000904340F48070A0622068B84218D1326873
:100F800012F4702F14D0A26A42F48012A262306868
:100F9000400505D5A06A20F4005040F48050A062BE
:100FA000A06AC00412D5E06A20F00600E0620EE0FC
:100FB000A26A22F48012A26240684005F0D5A06ABD
:100FC00020F4005040F48050A062E9E7E16284F828
:100FD0002410216A15488862216A1548C862216A6E
:100FE0001448086321686FF0020008602068816877
:100FF00041F480718160216853464C314A46206A31
:1010000000F070F920688168C1F34241072904D0DB
:10101000816841F48011816092E7816841F4A00108
:1010200081608DE70024014000280140EB080008A2
:10103000530900083909000810B590F82110002262
:10104000022905D00421816380F82020012010BDF1
:1010500001680B6823F00E030B6001680B6823F036
:1010600001030B6090F84030C46B012101FA03F3D7
:10107000636080F8211080F82020104610BD000029
:1010800010B5002490F82110022903D004218163B7
:1010900001243DE001680A6822F00E020A6001683E
:1010A0000A6822F001020A601A4A0168914201D1DD
:1010B000012121E0174A1432914201D110211BE095
:1010C000144A2832914201D1891515E0114A3C3267
:1010D000914201D189140FE00E4A5032914202D15F
:1010E0004FF4803108E00B4A6432914202D14FF450
:1010F000801101E04FF08071064A083A51600121E9
:1011000080F82110002180F82010416B01B1884740
:10111000204610BD080002402DE9F05FC16B0A684F
:1011200001680B68046C4FF0040A0AFA04FA4E4D89
:101130004E4E4F4FDFF83CC1DFF83C81DFF83C9169
:101140001AEA020F31D05FEA437A2ED50A68920676
:1011500003D40A6822F004020A600168A94201D19E
:10116000042119E0B14201D1402115E0B94202D178
:101170004FF4806110E0614502D14FF480410BE0F3
:10118000414502D14FF4802106E0494502D14FF498
:10119000800101E04FF08061334A083A5160C16A32
:1011A00000295FD0BDE8F05F08474FF0020E0EFA4D
:1011B00004FE1EEA020F4FF0000A4FF0010B35D07B
:1011C0005FEA837E32D50A68920605D40A6822F067
:1011D0000A020A6080F821B00168A94201D1022107
:1011E00019E0B14201D1202115E0B94202D14FF4FA
:1011F000007110E0614502D14FF400510BE0414510
:1012000002D14FF4003106E0494502D14FF40011FC
:1012100001E04FF00071144A083A516080F820A0B4
:10122000816A00291ED0BDE8F05F08470825A54067
:10123000154217D01A0715D50A6822F00E020A6067
:1012400090F84010C26B0BFA01F15160C0F838B051
:1012500080F821B080F820A0016B002902D0BDE801
:10126000F05F0847BDE8F09F080002401C00024004
:101270003000024044000240580002406C0002402E
:1012800030B5002827D0001D144A50F8041C142340
:101290000A44B2FBF3F29200C263114A8263022253
:1012A00042770A6843F6F0739A43D0E90034234347
:1012B000D0E902452C432343046923434469234373
:1012C0008469234313430B60002141630122427769
:1012D0000177002030BD012030BD0000F8FFFDBFC8
:1012E0000000024070B50446002594F82000012853
:1012F0000CD0012084F8200094F821600020012EF9
:1013000006D084F820000225284670BD022070BD5A
:10131000022684F82160A0632068066826F0010692
:1013200006602046FFF76EFBE06A28B1206801687E
:1013300041F00E01016009E02068016821F004011C
:1013400001602068016841F00A01016020680168BD
:1013500041F001010160D7E72DE9F04705460F464E
:101360004FF0010ADFF8908098F8180001280DD09E
:10137000012088F818002868204E4CF250390228C5
:1013800007D04846FFF7B8FB98B12FE00220BDE830
:10139000F0874846FFF7B0FBF8B90120FFF74CFB98
:1013A0004846FFF7A9FB8246306920F0040030610F
:1013B0001CE04FF0FF303860AC6811E02046FFF7CA
:1013C0004DFB4846FFF798FB8246306920F002004B
:1013D00030615FEA0A0001D03C6007E004F58064F8
:1013E000D5E9020100EB8120A042E7D8002088F86F
:1013F00018005046CBE70000000300200020024008
:101400000348016941F0800101610020704700003C
:10141000002002402DE9F05F0746884615461E462B
:101420000024DFF8749099F81800012809D00120F1
:1014300089F818004CF2503B5846FFF75DFB18B195
:1014400026E00220BDE8F09F012F05D0022F05D035
:101450000427DFF848A019E00127FAE70227F8E798
:10146000220128463146FEF75FFE81B208EB4400B8
:10147000FFF706FB5846FFF73FFBDAF8101021F0A4
:101480000101CAF8101018B9641CE4B2BC42E7D3D9
:10149000002189F81810D5E7000300200020024041
:1014A000002006490A69120607D5054A4A60054A1E
:1014B0004A600969090600D50120704700200240F2
:1014C00023016745AB89EFCD2DE9F84F00240023B8
:1014D000DFF8C4914FF00F08A9F1040B09F1040AD9
:1014E000ABF1040ED1E00127A7403A40BA4275D1D2
:1014F000DFF8A8C14D68A5EB0C0665452BD00DDCC7
:10150000032D34D005DC35B3012D19D0022D2FD198
:101510001BE0112D16D0122D2AD119E0B6F5881F27
:1015200019D006DCB6F5803F15D0B6F5801F1FD167
:1015300011E0B6F5001F0ED0B6F5041F18D10AE071
:10154000CB6815E0CB681B1D12E0CB6808330FE0B9
:10155000CB680C330CE08B6823B1012B04D008233B
:10156000476105E0042303E00823076100E000234E
:10157000FF2A01D8054601E000F1040502D84FEA30
:10158000840603E0A4F108064FEA86062F6808FAED
:1015900006FC27EA0C0703FA06F647EA06072F605F
:1015A0004D68ED0070D53E4DAE6946F00106AE6166
:1015B000AD6905F0010500953A4D24F00306771951
:1015C000BE68A5072D0F08FA05FC26EA0C06DFF811
:1015D000D8C0604503D14FF0000C17E054E0DFF8AD
:1015E000CCC0604502D14FF0010C0FE0DFF8C0C065
:1015F000604502D14FF0020C08E0DFF8B8C060454A
:1016000002D14FF0030C01E04FF0040C0CFA05FC82
:101610004CEA060CC7F808C04D68ED0205D5D9F8AC
:1016200000501543C9F8005004E0D9F80050954324
:10163000C9F800504D68AD0205D5DAF800501543E1
:10164000CAF8005004E0DAF800509543CAF8005098
:101650004D68AD0305D5DBF800501543CBF80050BD
:1016600004E0DBF800509543CBF800504D68ED03E3
:1016700005D5DEF800501543CEF8005004E0DEF842
:1016800000509543CEF80050641C0A6832FA04F505
:101690007FF429AFBDE8F88F080401400000111065
:1016A000001002400000014000080140000C014011
:1016B0000010014000140140C26821EA02030A4000
:1016C00043EA024101617047002A01D0016170477D
:1016D00009040161704700000148806870470000FC
:1016E000140000200248816802781144816070472C
:1016F0001400002010B50748016841F01001016096
:10170000032000F077F80F2000F006F800F026F82C
:10171000002010BD0020024070B504460D4D4FF46E
:101720007A712878B1FBF0F00B490968B1FBF0F051
:1017300000F004FC08B1012070BD102C07D200227B
:101740002146501E00F036F86C60002070BD01206C
:1017500070BD0000140000202000002008B50C48D7
:10176000816941F001018161816901F0010100910C
:10177000C16941F08051C161C06900F080500090A2
:101780000449486820F0E06040F00070486008BDFF
:101790000010024000000140002809DB00F01F0299
:1017A000012191404009800000F1E020C0F80011C3
:1017B00070470000F0B40D460D4B1B68C3F30223C5
:1017C000C3F10704042C00D90424191D072901D2F0
:1017D000002300E0DB1E012606FA04F1491E294021
:1017E00099409E40761E16403143F0BC01F0C6BCC5
:1017F0000CED00E000F00701054A10684FF6FF030A
:10180000184040EA01200349084310607047000077
:101810000CED00E00000FA0510B501460020244C54
:10182000012922D0022939D010291DD161682268EE
:10183000D20119D51F48C1F38342805CC9030AD580
:1018400061681C4AC1F34041921E515C1A4AB2FBC6
:10185000F1F1484301E0194948436168490203D462
:1018600040000321B0FBF1F010BD226AC2F3012158
:10187000012903D1920701D5C80310BD022905D162
:10188000626A920702D549F6404010BD0329FCD197
:1018900021688903F9D54FF2244010BD00F056F9B4
:1018A0006168C1F38131491C4900B0FBF1F010BD02
:1018B000001002408C42000800127A0000093D002E
:1018C0002DE9F8430446DFF8F8802078C0075FD0A0
:1018D0000027D8F81C00C0000BD4D8F81C0040F03A
:1018E0008050C8F81C00D8F81C0000F08050009010
:1018F0000127344D2868C00512D4286840F4807050
:101900002860FFF7E9FE064607E0FFF7E5FE801BCB
:10191000642802D90320BDE8F8832868C005F4D5FF
:10192000D8F8200000F4407010B3A18801F4407191
:1019300081421DD0D8F8200020F4407022490122B5
:101940000A6000220A60C8F82000C00710D0FFF724
:10195000C3FE054641F2883606E0FFF7BDFE401B98
:10196000B04201D90320D6E7D8F820008007F4D58B
:10197000D8F82000616820F440700843C8F82000BF
:10198000012F05D1D8F81C0020F08050C8F81C00A9
:101990002078800707D5D8F80400A16820F44040DB
:1019A0000843C8F804002078C00607D5D8F804001A
:1019B000E16820F480000843C8F804000020AAE78A
:1019C0000010024000700040400442422DE9F04700
:1019D00004460D46002C17D0DFF83081D8F80000FF
:1019E00000F00700A84211D2D8F8000020F007004C
:1019F0002843C8F80000D8F8000000F00700A8420B
:101A000004D00120BDE8F0870120FBE72068404EAC
:101A1000810712D5400703D5706840F4E06070601C
:101A20002078000703D5706840F4605070607068DB
:101A3000A16820F0F000084370602078C0072CD027
:101A40006068012806D0022809D0316889070BD4C4
:101A50000120D7E73168890306D40120D2E7316835
:101A6000890101D40120CDE7716821F00301014310
:101A70007160FFF731FE074641F2883906E0FFF753
:101A80002BFEC01B484501D90320BBE77068616885
:101A900000F00C00B0EB810FF1D1D8F8000000F09D
:101AA0000700A8420ED9D8F8000020F0070028430C
:101AB000C8F80000D8F8000000F00700A84201D0E4
:101AC00001209FE72078400705D57068E16820F481
:101AD000E060084370602078000706D570682169CF
:101AE00020F4605040EAC100706000F03FF8716877
:101AF000084AC1F30311515CC84007490860074810
:101B00000068FFF709FE00207CE70000002002408B
:101B1000001002409C420008200000201800002015
:101B200001480068704700002000002000B5FFF762
:101B3000F7FF04494968044AC1F30221515CC840D7
:101B400000BD000000100240AC42000800B5FFF7E5
:101B5000E7FF04494968044AC1F3C221515CC84007
:101B600000BD000000100240AC4200080E4B596856
:101B70000E4801F00C02042A11D0082A0FD10C489B
:101B8000C1F38342805CC9030AD55968084AC1F38E
:101B90004041921E515C054A5043B0FBF1F0704742
:101BA00004494843704700000010024000127A00C8
:101BB0007A42000800093D002DE9F84F0446002C48
:101BC0000ED02078D94DC0075ED06868C0F3810080
:101BD00001280BD06868C0F38100022803D00CE014
:101BE0000120BDE8F88F6868C00306D52868800327
:101BF0004AD56068A8BB0120F3E76068B0F5803F74
:101C000011D0A8B1B0F5A02F1BD0286820F48030E7
:101C10002860286820F480202860606830B3FFF7CF
:101C20005BFD06461EE0286840F480302860F4E73B
:101C3000286820F480302860286820F480202860FC
:101C4000EBE7286840F480202860286840F4803062
:101C50002860E2E7FFF740FD801B642802D90320DB
:101C6000BFE711E028688003F4D50DE0FFF734FDED
:101C7000064606E0FFF730FD801B642801D90320EB
:101C8000AFE728688003F5D42078DFF8A4828007C6
:101C90004FF0010A4FF0000945D5686810F00C0FAD
:101CA00007D06868C0F38100022812D16868C003B9
:101CB0000FD42868800704D52069012801D00120AD
:101CC0008FE72868616920F0F80040EAC1002860C9
:101CD00029E02069B8B1C8F800A0FFF7FDFC06466E
:101CE00006E0FFF7F9FC801B022801D9032078E702
:101CF00028688007F5D52868616920F0F80040EA77
:101D0000C10028600FE0C8F80090FFF7E5FC064628
:101D100006E0FFF7E1FC801B022801D9032060E701
:101D200028688007F5D42078000726D58148A16966
:101D300099B1C0F800A0FFF7CFFC064606E0FFF718
:101D4000CBFC801B022801D903204AE7686A800780
:101D5000F5D5012000F088FE0FE0C0F80090FFF7F5
:101D6000BBFC064606E0FFF7B7FC801B022801D942
:101D7000032036E7686A8007F5D42078400773D5DA
:101D80000026E869C00008D4E86940F08050E861A6
:101D9000E86900F0805000900126DFF89CB1DBF884
:101DA0000000C00514D4DBF8000040F48070CBF8CC
:101DB0000000FFF791FC074606E0FFF78DFCC01B13
:101DC000642801D903200CE7DBF80000C005F4D536
:101DD000E068012812D0B0B105281DD0286A20F093
:101DE00001002862286A20F004002862E06841F2BD
:101DF000883B28B3FFF770FC07461DE0286A40F0D7
:101E000001002862F2E7286A20F001002862286AAF
:101E100020F004002862E9E7286A40F00400286204
:101E2000286A40F001002862E0E7FFF755FCC01B7C
:101E3000584501D90320D4E6286A8007F5D50DE07E
:101E4000FFF74AFC074606E0FFF746FCC01B584573
:101E500001D90320C5E6286A8007F5D4012E03D1F5
:101E6000E86920F08050E861E069A0B36968C1F3D7
:101E70008101022946D0022805D0C8F86090FFF7FA
:101E80002BFC04463AE0C8F86090FFF725FC0646B4
:101E900006E0FFF721FC801B022801D90320A0E601
:101EA00028688001F5D4206AB0F5803F05D16868C4
:101EB000A16820F4003008436860D4E908010843B1
:101EC000696821F4741108436860C8F860A0FFF7DE
:101ED00003FC044607E026E0FFF7FEFB001B022898
:101EE00001D903207DE628688001F5D51BE0FFF7C6
:101EF000F3FB001B022801D9032072E62868800149
:101F0000F5D410E001280CD06868226A00F4803112
:101F1000914204D1616A00F47010884203D001201C
:101F20005FE601205DE600205BE600000010024055
:101F300000004242800442420070004010B5401E42
:101F4000B0F1807F01D3012010BD4FF0E02460612B
:101F50000F21601701F012F90020A0610720206115
:101F6000002010BD7047704770B590F83C20012AE2
:101F700025D0012680F83C60022280F83D200268CE
:101F80005468936824F070050C682C4354600D4C21
:101F90000268A24208D0B2F1804F05D00A4CA2429A
:101FA00002D00A4CA24204D123F0800349681943AD
:101FB00091603C30467000210170002070BD02200D
:101FC00070BD0000002C01400004004000080040EB
:101FD00010B50446002C03D094F83D0010B107E082
:101FE000012010BD002084F83C00204600F016F8C7
:101FF000022084F83D00211D206800F08DFD0120A5
:102000003D3460726070A070E07020716071A071EA
:10201000E07120722070002010BD000008B500683B
:10202000B0F1804F12D10A48C16941F00101C1618C
:10203000C06900F001000090002211461C20FFF74B
:10204000B9FBBDE808401C20FFF7A6BB08BD000097
:102050000010024090F83D10012901D00120704786
:10206000022180F83D100168CA6842F00102CA608E
:1020700000680E49884208D0B0F1804F05D00C4965
:10208000884202D00B49884209D1816801F00701DA
:10209000062908D0016841F00101016003E00168F0
:1020A00041F001010160002070470000002C014058
:1020B000000400400008004070B50446002594F874
:1020C0003C00012817D0012684F83C60022084F8E7
:1020D0003D002068826822F0770222F47F4282600D
:1020E0000868502838D00DDC202853D005DC90B388
:1020F000102811D14EE0022070BD30284AD040286F
:102100000AD13DE0602831D070280CD0B0F5805F56
:1021100003D0B0F5005F12D001253C34667000207A
:102120002070284670BDCB68D1E90121206800F0FD
:102130002FFD2068816841F077018160EDE7CB6871
:10214000D1E90121206800F023FD2068816841F475
:1021500080418160E1E71DE0CA684968206800F0BD
:1021600029FD5021206800F01DFDD6E7CA684968A6
:10217000206800F030FD6021206800F013FDCCE7FE
:10218000CA684968206800F015FD4021206800F009
:1021900009FDC2E722680146104600F003FDBCE7D6
:1021A00070472DE9F04104462068C56806694FF084
:1021B0000007B10714D5A90712D5F91E0161012046
:1021C000207720688069800703D02046FFF7E8FF6A
:1021D00005E0204600F081F8204600F07FF82777E0
:1021E000700717D5680715D521686FF004000861DE
:1021F000022020772068806910F4407F03D02046B9
:10220000FFF7CEFF05E0204600F067F8204600F01B
:1022100065F82777300716D5280714D521686FF0A1
:1022200008000861042020772068C069800703D077
:102230002046FFF7B5FF05E0204600F04EF82046A7
:1022400000F04CF82777F00617D5E80615D5216879
:102250006FF010000861082020772068C06910F432
:10226000407F03D02046FFF79BFF05E0204600F0AB
:1022700034F8204600F032F82777F00708D0E80756
:1022800006D021686FF001000861204600F028F8B0
:10229000300608D5280606D521686FF08000086151
:1022A0002046FFF75FFE700608D5680606D5216850
:1022B0006FF040000861204600F034F8B0060AD5FF
:1022C000A80608D521686FF0200008612046BDE807
:1022D000F041FFF748BEBDE8F0817047704700004D
:1022E0000068B0F1804F16D10B4A0C48002391686A
:1022F000491C91608068814202D393600121117072
:102300005168491C5160814205D353604FF480519C
:102310000348FFF7D1B97047000000201C010020DE
:10232000000C01407047704710B5044620684069B2
:10233000C0F3C01094F84110212911D180B1206858
:10234000143050E8001F21F0800140E80012002AFC
:10235000F5D1A06B08B1FEF76FFE204600F061FDDD
:1023600020684069C0F3801094F84210222911D1EE
:1023700080B12068143050E8001F21F0400140E88F
:102380000012002AF5D1E06B08B1FEF755FE204699
:1023900000F013FD002010BD70470000F8B50446A2
:1023A00022681068D168536900F00F06002E08D12A
:1023B000850606D58D0604D52046BDE8F84000F018
:1023C0003EBD0025002E66D003F0010601F4907793
:1023D000374360D0C20705D0CA0503D5626C42F00E
:1023E00001026264420705D5DA0703D0626C42F04D
:1023F00002026264820705D5DA0703D0626C42F0FC
:1024000004026264020707D501F02002324303D0C0
:10241000626C42F008026264626C002A31D080066D
:1024200004D5880602D5204600F009FD20684069E1
:10243000C0F38010616C090700D438B3204600F067
:10244000BCFC2068406940061CD52068143050E868
:10245000001F21F0400140E80012002AF5D1E06B96
:1024600060B159494163E06BFEF70AFE002808D0CD
:10247000E06B416B01B0BDE8F04008472046FFF734
:102480008BFFF8BD2046FFF787FFF8BD2046FFF71A
:1024900083FF6564F8BD236B012B7DD1C3067BD51B
:1024A000CB067ED510685068009050694FF020032D
:1024B00040064FF0020643D5E16B0868406880B2E1
:1024C0000028E7D0A28D8242E4D9E08588692028DF
:1024D0002DD020680C3050E8001F21F4807140E8B6
:1024E0000012002AF5D12068143050E8001F21F0B6
:1024F000010140E80012002AF5D12068143050E8AC
:10250000001F21F0400140E80012002AF5D184F8B4
:102510004230256320680C3050E8001F21F0100184
:1025200040E80012002AF5D1E06BFEF785FD6663F6
:10253000A08DE18D401A81B22046FFF7F4FEF8BD70
:10254000A08DE18D401A81B2E08D0028F7D00029DE
:10255000F5D020680C3050E8002F22F4907240E84B
:102560000027002FF5D12068143050E8002F22F00A
:10257000010240E80027002FF5D184F8423025639E
:1025800020680C3050E8002F22F0100240E80023B1
:10259000002BF5D1666300E003E02046FFF7C3FEA1
:1025A000F8BD020606D50A0604D52046BDE8F84067
:1025B00000F050BD4006F3D54806F1D52046BDE8F1
:1025C000F84000F021BC0000BD2C000870B50446A6
:1025D000002C04D094F84100002510B106E0012041
:1025E00070BD84F84050204600F024F8242084F880
:1025F00041002068C16821F40051C160204600F00C
:1026000083FC2068016921F49041016120684169DF
:1026100021F02A0141612068C16841F40051C16084
:102620006564202084F8410084F84200656300203E
:1026300070BD00002DE9F04186B0044600250295EA
:102640000395049505954548DFF80CC121680222E1
:1026500003230615802761453DD1816941F48041FE
:102660008161816901F480410191816941F0040136
:102670008161806900F004000190100202900392D1
:102680000593DFF8DC8002A94046FEF71DFF0296A5
:102690000395049502A94046FEF716FF324E3148D5
:1026A00030607560B560F76035617561B561F56181
:1026B0003046FEF7E5FD08B1FEF7BBF9E66374624C
:1026C000002211462520FFF775F82520FFF764F852
:1026D00006B0BDE8F081DFF894C06145F8D1C1696A
:1026E00041F48021C161C16901F4802101918169B6
:1026F00041F008018161806900F0080001900296B4
:10270000039205931A4E02A93046FEF7DDFEF0143F
:1027100002900395049502A93046FEF7D5FE1148B4
:10272000144E283830607560B560F76035617561AA
:10273000B561F5613046FEF7A3FD08B1FEF779F902
:10274000E6637462002211462720FFF733F8272042
:10275000FFF722F8BCE700000038014000100240FB
:102760000008014058000240740200200048004068
:10277000000C0140B802002090F84230202B01D01C
:102780000220704721B11AB10023036300F018BC86
:1027900001207047704770472DE9F84304460E4604
:1027A00015461F4694F84100202802D00220BDE8BB
:1027B000F8837EB175B100206064212084F8410067
:1027C000FEF78AFF8146A584E584A068B0F5805FA6
:1027D00002D003E00120EAE7206920B13546002657
:1027E0004FF0200815E00025FAE74B460022802133
:1027F0002046009700F05DFC18B184F8418003206A
:10280000D5E7ADB1216815F8010B4860E08C401E9A
:10281000E084E08C0028E8D14B460022402120468D
:10282000009700F046FC50B184F841800320BEE7D9
:1028300036F8020B2168C0F308004860E6E784F828
:1028400041800020B3E77047FEE70000FEB500249A
:102850000094019402943D483B49016089158160D0
:102860000125057304754FF46021C16144600A2697
:102870000661FEF76DFA08B1FEF7DBF800940195EA
:102880000524029469463148FEF7DAF908B1FEF7EB
:10289000D0F800950225019569462C48FEF7D0F93D
:1028A00008B1FEF7C6F8009503250195694627484B
:1028B000FEF7C6F908B1FEF7BCF8009504250195AE
:1028C00069462248FEF7BCF908B1FEF7B2F8009558
:1028D000019469461D48FEF7B3F908B1FEF7A9F85F
:1028E00000940624019469461848FEF7A9F908B136
:1028F000FEF79FF800940724019469461348FEF7F9
:102900009FF908B1FEF795F80094082401946946F0
:102910000E48FEF795F908B1FEF78BF800940924EC
:10292000019469460948FEF78BF908B1FEF781F872
:102930000094019669460548FEF782F9002801D007
:10294000FEF777F8FEBD00000024014028010020BA
:1029500008B51148416941F001014161406900F049
:1029600001000090002211460B20FEF723FF0B20F0
:10297000FEF712FF002211460D20FEF71BFF0D206F
:10298000FEF70AFF002211460F20FEF713FFBDE8F5
:1029900008400F20FEF700BF0010024070B586B05F
:1029A000002402940394049405941248816941F030
:1029B00004018161816901F004010191816941F0A3
:1029C00008018161806900F0080001900A4E4FF40F
:1029D0008055002229463046FEF776FE02950121F9
:1029E000039104940221059102A93046FEF76CFD83
:1029F00006B070BD00100240000C014010B586B05A
:102A000000240294039404940594009401941348C0
:102A10004FF0804101603F214160846040F2E73126
:102A2000C16004618461FFF7D3FA08B1FEF701F8D1
:102A30004FF48050029002A90848FFF73DFB08B10F
:102A4000FDF7F7FF0094019469460448FFF78CFAFC
:102A5000002801D0FDF7EDFF06B010BD58010020A1
:102A6000FEE7FEE77047000008B507494FF4FA5249
:102A70000968B1FBF2F14143009100BF0098411E8B
:102A80000091FAD208BD0000200000207047FEF738
:102A900029BE30B593B0282109A8FDF75CFB1421AD
:102AA00004A8FDF758FB00240094019402940394B9
:102AB0000225099501200D9010200E90109511947B
:102AC0004FF46010129009A8FFF776F808B1FDF7EF
:102AD000B0FF0F200490059506944FF48060079096
:102AE0000894022104A8FEF771FF08B1FDF7A1FFC9
:102AF00000954FF4404002906846FEF7E1FE002842
:102B000001D0FDF796FF13B030BD70470148FFF7C5
:102B100048BB000058010020F0B50268194C1A4D5E
:102B20001A4E4FF08047A04205D0B84203D0A842C9
:102B300001D0B04203D122F070034A681A43A04288
:102B400005D0B84203D0A84201D0B04203D122F44C
:102B50004073CA681A434B6922F080021A4302602C
:102B60008A68C2620A688262A04201D1096901636F
:102B7000012141610169C90703D0016921F0010107
:102B80000161F0BD002C014000040040000800403D
:102B900010B5846824F47F4442EA03220A432243A6
:102BA000826010BD826822F070020A4342F0070181
:102BB0008160704710B5036A046A24F0010404625E
:102BC000846924F0F00444EA021423F00A020A4360
:102BD0008461026210BD10B5036A046A24F0100417
:102BE0000462846924F4704444EA023223F0A003AE
:102BF00043EA01118261016210BD000038B514483A
:102C000000680168C943C90621D401684168009180
:102C1000016840680E48FFF787FB0E48006840686F
:102C20000D4CC0F1640020800C4A01211170C1B22A
:102C3000A01C00F0EBFF2188A01C491CFDF78BFABB
:102C40006422A11CBDE838400148FFF795BD38BD9E
:102C5000A0010020740200202800002010000020A5
:102C600038B5124800680168C943C9061DD4016817
:102C700041680091016840680C48FFF755FB0C481B
:102C8000006840680B4CC0F1640081B221800A4AA0
:102C900001205070491CA01CFDF75DFA6422A11CA4
:102CA000BDE838400148FFF767BD38BDE8010020A6
:102CB000B80200208E0000201000002010B5406AED
:102CC0000021C185C184FFF767FB10BD70B5446A60
:102CD00020684069C0F3C01094F8411000252129F4
:102CE00004D118B1E584204600F09BF820684069C3
:102CF000C0F3801094F84210222904D118B1E58560
:102D0000204600F05AF8606C40F0100060642046E5
:102D1000FFF742FB70BD10B50146486A09680968B3
:102D20004FF0000389062ED4C38501680C3151E8A9
:102D3000002F22F4807241E80024002CF5D10168B4
:102D4000143151E8002F22F0010241E80024002C48
:102D5000F5D10168143151E8002F22F0400241E81A
:102D60000024002CF5D1202180F84210016B0129AC
:102D700009D101680C3151E8002F22F0100241E81E
:102D80000024002CF5D14363016B012902D0FFF729
:102D900001FD10BD818DFFF7C6FA10BD10B5406A68
:102DA00001214163016B012902D0FFF7F4FC10BD42
:102DB000818D4908FFF7B7FA10BD01680C3151E861
:102DC000002F22F4907241E80023002BF5D1016816
:102DD000143151E8002F22F0010241E80023002BBA
:102DE000F5D1016B012909D101680C3151E8002F9F
:102DF00022F0100241E80023002BF5D1202180F8B9
:102E0000421000210163704710B50168CA6822F0C2
:102E10004002CA60202180F84110FFF714FD002015
:102E200010BD01680C3151E8002F22F0C00241E8CA
:102E30000023002BF5D1202180F84110704708B500
:102E400090F84210222901D0022008BD82684FF478
:102E500080539A4201D1016921B1816A9A421DD001
:102E600052B10BE0816A02685268C2F308020A801C
:102E7000816A891C816209E002697AB1026852683C
:102E800002F07F020A70816A491C8162C18D491E6D
:102E90000904090CC18505D0002008BD02685268EC
:102EA0000A70F0E70168CA6822F02002CA6001686F
:102EB000CA6822F48072CA6001684A6922F001027D
:102EC0004A61202180F8421000214163026B012AEF
:102ED00003D0FFF75FFC002008BD016301680C31DF
:102EE00051E8002F22F0100241E80023002BF5D119
:102EF00001680A68D20602D50A6849680091818D86
:102F0000FFF711FAE7E7000070B504462068016991
:102F1000E26821F4405111430161A1682069014335
:102F2000606901432068C26841F20C639A430A4316
:102F3000C26020684169A26921F440711143416176
:102F40001E492068884202D1FEF700FE01E0FEF72C
:102F5000EDFD00EBC00101EB001061686422890007
:102F6000B0FBF1F3B3FBF2F36FF018067343B0FB61
:102F7000F1F5B0FBF1F605EB8305322303EB051504
:102F8000B5FBF2F5B6FBF2F605F0F00505EB06151C
:102F9000B0FBF1F6B0FBF1F0B0FBF2F06FF018010E
:102FA000484306EB800003EB0010B0FBF2F0216811
:102FB00000F00F002844886070BD00000038014018
:102FC00037B582B004461346039AA262A385002057
:102FD0006064222184F84210E56B1B49A962E56B0D
:102FE0001A49E962E56B1A492963E16B4863216874
:102FF000E06B091DFEF776F92068016840680190D2
:10300000206948B120680C3050E8001F41F48071FD
:1030100040E80012002AF5D12068143050E8001F63
:1030200041F0010140E80012002AF5D12068143077
:1030300050E8001F41F0400140E80012002AF5D19D
:1030400005B0002030BD0000172D00089D2D0008A0
:10305000CD2C000890F84110212901D002207047A2
:103060008168B1F5805F01D1016961B1016A4A1CD3
:103070000262026809785160C18C491E0904090C7A
:10308000C1840AD013E0016A02680988C1F308010B
:103090005160016A891C0162EEE70168CA6822F08A
:1030A0008002CA600068C16841F04001C160002030
:1030B00070472DE9F84304460D4617469846089E8A
:1030C00025E0701C23D0FEF707FBA0EB0800B04200
:1030D0001BD8D6B12068C168490718D5802D16D0F5
:1030E000402D14D00168C943090710D40025216878
:1030F0000968406800902046FFF75FFE0820606482
:1031000084F840500120BDE8F8830320FBE72068E5
:10311000006835EA000004D00020B842D1D0002079
:10312000F1E70120F9E7000010B50448FFF736F990
:10313000BDE810400148FFF761BD0000A00100207C
:1031400010B50448FFF72AF9BDE810400148FFF721
:1031500087BD0000E8010020FEE700000FB4054B2A
:1031600010B503A9044A029800F0EEF810BC5DF80F
:1031700014FB0000713A00080C0000200907090E3A
:10318000002804DB00F1E02080F80014704700F014
:103190000F0000F1E02080F8141D704700487047D0
:1031A0002400002002E008C8121F08C1002AFAD13A
:1031B00070477047002001E001C1121F002AFBD1B7
:1031C000704700002DE9FF5F82B00021DDE9043087
:1031D000020DDDF840B0034318D044F61050A2F2BF
:1031E000FF3242431514119801281FD0A5EB0B00A4
:1031F000401C5FEA000A4FF000064E4FDFF838919E
:10320000B046504615D5CAF1000413E011980124C8
:103210004AA3012801D16FEA0B010298119AC0E973
:103220000031C0E9024206B0BDE8F09FCBF10000DA
:10323000DFE704460021404A491842EB0450CDE93B
:10324000001012E0E00707D032463B4640464946B0
:10325000FCF7A8FF8046894632463B461046194691
:10326000FCF7A0FF06460F466410002CEAD1DDE90A
:103270000401DDE90023BAF1000F06DAFCF792FF42
:1032800042464B46FCF78EFF05E0FDF7CFF942467C
:103290004B46FDF7CBF904460E460022284BFDF7BE
:1032A0004DFA03D84FF0FF30014607E00022254BCE
:1032B00020463146FDF713F9FDF727FA102409E0FF
:1032C000002C0ADB0A220023FDF70CF8039B3032A6
:1032D0001A55641E50EA0102F2D1641C039AC4F12B
:1032E00011031444119A012A03D0012208430DD17D
:1032F0000AE0084304D000204FF0110B119072E750
:10330000A3EB0B056D1E0DE05B4504DD4FF00002E5
:1033100005F1010504E003DA4FF00002A5F1010513
:10332000002AECD002981199C0E90231C0E90045A9
:1033300079E70000000014400000F03F300000007A
:103340000000F0430000E03F2DE9FF4F95B09A46A2
:10335000884606460025EEE1252877D10024274639
:10336000F94A0121039400E0044316F8013F203B91
:1033700001FA03F01042F7D130782A2811D06FF00B
:103380002F033078A0F13002092A16D8039A44F0AE
:10339000020402EB820203EB42021044761C03900B
:1033A000EFE758F8042B0392002A03DA504244F462
:1033B0000054039044F00204761C30782E2816D175
:1033C00016F8010F44F004042A280DD06FF02F02E4
:1033D0003078A0F13003092B09D807EB870302EB03
:1033E0004303C718761CF3E758F8047B761C307843
:1033F0006C280FD006DC4C2817D068280DD06A281E
:1034000014D104E0742810D07A280FD10DE044F4D0
:1034100000140AE044F4801401E044F4401472788B
:10342000824202D104F58014761C761C307866281E
:103430000BD013DC582877D009DC002875D045283C
:10344000F6D04628F4D047281AD193E118E0632833
:1034500035D0642879D0652812D18BE1702873D0DB
:1034600008DC6728F1D069286FD06E280DD06F284E
:1034700006D1ACE073282CD0752874D0782853D0AE
:103480005246179990476D1C54E1C4F3025002282C
:1034900009D003280DD0D8F8001004280DD00D60F5
:1034A00008F1040846E1D8F80010EA17C1E9005213
:1034B000F6E7D8F800100D80F2E70D70F0E718F885
:1034C000041B8DF8001000208DF80100EB46012050
:1034D00003E058F804BB4FF0FF3061074FF00001E4
:1034E00002D40DE009F101018946B9420FDA8145A4
:1034F000F8DB1BF809100029F4D108E009F10101FB
:1035000089468142FADB1BF809100029F6D103989D
:103510005346A0EB090721463846179A00F080FA77
:10352000284400EB090507E044E008E10DE01BF842
:10353000010B524617999047B9F10109F7D253464A
:1035400021463846179AF2E039E00A21C4F30252C4
:103550004FF0000B0091022A06D058F8040BC11757
:10356000032A09D00AE023E008F1070020F007024F
:10357000F2E80201904605E000B2C117042A01D129
:1035800040B2C117002906DA0A460021404261EB29
:1035900002012D2202E0220504D52B228DF8042001
:1035A000012203E0E20701D02022F7E7914657E02D
:1035B0000A2100E010214FF0000B00910BE01021D8
:1035C0004FF0000B44F004040827009103E00820AA
:1035D0004FF0000B0090C4F30252022A05D058F8B5
:1035E000040B0021032A08D008E008F1070020F0AE
:1035F0000702F2E80201904603E080B2042A00D1FB
:10360000C0B24FF0000922072AD53278702A07D0BD
:10361000DDF800C08CF0100C5CEA0B0C05D00EE05D
:1036200040228DF80420012208E050EA010306D070
:1036300030238DF804308DF8052002229146009B3E
:1036400083F0080353EA0B030AD150EA010201D1C7
:10365000620705D530228DF804204FF001097F1E46
:103660003278582A04D039A20C920CAA02920BE0AC
:103670003BA2F9E75B46009AFCF734FE0C9B9B5C8F
:10368000029A521E0292137050EA0102F2D102987D
:1036900004A9081A00F1200B600702D524F4803435
:1036A00000E001275F4502DDA7EB0B0000E00020F2
:1036B00000EB0B01009003984944401A0390E0038B
:1036C00006D453462146179A039800F0A9F90544F9
:1036D000002706E001A85246C05D179990476D1C6F
:1036E0007F1C4F45F6DBE0030CD553462146179A65
:1036F000039800F095F9054404E0302052461799EC
:1037000090476D1C0099481E00900029F5DC08E0E8
:103710000298029952460078491C029117999047E5
:103720006D1CBBF10001ABF1010BF1DC5BE100F0C2
:1037300065F90544761C307800287FF40DAE19B089
:103740002846BDE8F08F00000928010030313233EF
:1037500034353637383961626364656600000000CD
:1037600030313233343536373839414243444546B7
:1037700000000000600700D4062708F1070020F0D1
:103780000700F0E80223804603F0004C5FEA0C00DB
:1037900001D097A009E0200501D596A005E0E0073B
:1037A00001D095A001E0AFF24C001390307823F0E7
:1037B000004365280CD006DC452809D046281DD0DA
:1037C00047287FD13BE0662818D067287AD136E0B9
:1037D0000021112F01DB112000E0781CCDE9000150
:1037E00004A90CA8FFF7EEFCDDE90D010C9A4FF0DF
:1037F000000B07F10109109200914EE04FF00040DC
:103800000097CDE9011004A90CA8FFF7DBFCDDE966
:103810000D020C9B0F994FF0000B914610930092F4
:1038200011B9791C00EB0109B7EB090003D4C0F111
:10383000FF3B07F10109A9EB0700019042E0012FCE
:1038400000DA01270021112F01DD112000E03846A8
:10385000CDE9000104A90CA8FFF7B4FCDDE90D01D6
:103860000C9A00914FF0000BB946109221070FD42B
:10387000009A4A4503DA914601E0A9F10109B9F13C
:10388000010F05DD109AA9F10101515C3029F4D036
:10389000B84202DA10F1040F03DA0121CDE9011078
:1038A00010E0002803DC8344A9EB000102E0411C86
:1038B000494500DD8946A0EB0B00401C01904FF00C
:1038C00000400290200705D40198484502DB4FF0E4
:1038D000FF30019000208DF84B0002980DF14B074E
:1038E000B0F1004F25D002200C902B200D900298B3
:1038F00000280CDA404202902D200D9007E00A21AA
:103900000298FCF7D9FC3031029007F8011D0C99A0
:10391000481E0C900029F2DC02980028EFD1791E95
:103920000D980870307800F0200040F0450007F84E
:10393000020D11A8C01BC01D02901398007800B1A1
:10394000012000EB0901019801EBE07102980144AC
:103950000398401A401E0390E00306D453462146C4
:10396000179A039800F05CF805441398007818B192
:103970005246179990476D1CE00323D553462146C4
:10398000179A039800F04CF805441BE0BBF1000FB8
:1039900007DB0098584504DD1098179910F80B00C4
:1039A00001E0179930205246904701980BF1010B26
:1039B000401E05F10105019004D12E2052461799B1
:1039C00090476D1CB9F10001A9F10109DEDC05E0A9
:1039D00017F8010B5246179990476D1C0299481E23
:1039E00002900029F4DC53462146179A03989EE67C
:1039F0002D0000002B000000200000002DE9F04108
:103A0000044600251E461746880404D405E03946BE
:103A10002020B0476D1C641EF9D52846BDE8F08112
:103A20002DE9F041044600251E469046C80301D505
:103A3000302700E02027880404D505E041463846B9
:103A4000B0476D1C641EF9D52846BDE8F0810222FE
:103A500038214220401E10F0FF00FBD1491E11F01A
:103A6000FF01F7D1521E12F0FF02F3D170470000A0
:103A700013B50A23012269460548FEF78DFE044866
:103A80000A23012269464830FEF786FE00981CBDD5
:103A9000A001002010B50C490A4A0A6048600020C5
:103AA0008860C86008610C224A618861C861084664
:103AB000FEF78CFD002803D0BDE81040FCF7B9BF2D
:103AC00010BD000000380140A001002010B50C49D5
:103AD0000A4A0A60486000208860C86008610C22B9
:103AE0004A618861C8610846FEF770FD002803D06E
:103AF000BDE81040FCF79DBF10BD0000004800402D
:103B0000E8010020FDF7F6FDFEF7C3FFFEF746FFD4
:103B1000FEF71EFFFEF79AFEFEF770FF3748FEF72E
:103B200099FA00F03FF9354C3C3C6068FFF7B2FF72
:103B30006068FFF7CBFF04F10C00FDF707F8A4F174
:103B400028010A2201F13400FDF7E6F904F18400AE
:103B50000068C16841F01001C160A4F1F40664225C
:103B6000B11C04F18400FEF707FE04F1CC000068EC
:103B7000C16841F01001C160A4F18E076422B91C34
:103B800004F1CC00FEF7F8FDDFF87480DFF87490E4
:103B9000DFF874A0002598F80000D0B188F8005034
:103BA000207803280ED004DC012805D0022810D18B
:103BB00005E004280DD109E000F042F909E000F029
:103BC00027FA06E0607800F003FA02E0A07800F03F
:103BD0002FFB99F8000028B13178B01C00F016F8DE
:103BE00089F800509AF800000028D4D03978B81C21
:103BF00000F00CF88AF80050CDE7000058010020D2
:103C00000000002010000020110000202DE9F041EC
:103C100007460C4602224EA13846FCF7A7FA30B9F7
:103C2000042C04D8BDE8F0414AA0FFF797BA082257
:103C300049A13846FCF79AFA4A4D07F1080698B9A7
:103C40000F2C11D83046FCF7A0FA052807DA2870A7
:103C500000F0CAF8BDE8F0413EA0FFF77FBABDE82A
:103C6000F04141A0FFF77ABA082241A13846FCF79B
:103C70007DFAA8B90F2C13D83046FCF786FA09282C
:103C800009D868700320287000F0AEF8BDE8F04154
:103C900030A0FFF763BABDE8F04133A0FFF75EBA8A
:103CA000082236A13846FCF761FAA8B90F2C13D8C0
:103CB0003046FCF76AFA092809D8A8700420287051
:103CC00000F092F8BDE8F04122A0FFF747BABDE846
:103CD000F04125A0FFF742BA08222BA13846FCF795
:103CE00045FAB0B9142C14D83046FCF74EFA294ADC
:103CF000A0F16E01914207D8686000F075F8BDE848
:103D0000F04114A0FFF72ABABDE8F04116A0FFF772
:103D100025BA082220A13846FCF728FA002815D138
:103D2000142C13D83046FCF730FA42F21071884256
:103D300007D8A86000F058F8BDE8F04105A0FFF7EB
:103D40000DBABDE8F04108A0FFF708BABDE8F08160
:103D5000415400004F4B0A0041542B4D4F44453D08
:103D6000000000001C0100204552524F520A000082
:103D700041542B4D3143483D0000000041542B4D30
:103D80003243483D0000000041542B424155443D20
:103D900000000000D2410F0041542B524154453DD8
:103DA000000000000F490E48D1E900238968C0E9EE
:103DB000002381600178042905D84178092902D8B7
:103DC0008178092909D90121017000214170817090
:103DD0004FF4E121416032218160002070470000F2
:103DE0001C01002000FC0008F0B585B0FDF758FB71
:103DF000002000900190104F039701200490694625
:103E000001A8FDF7A9FA054685B90C4E002407EB79
:103E1000440136F8142000230120FDF7FBFA054683
:103E2000FFF715FE15B9641C062CF0D3FDF7E8FA70
:103E300005B02846F0BD000000FC00081C01002071
:103E40002DE9F04F9DB05248406AFCF71DFAFCF78F
:103E500020FA4FF066324F4BFCF7A4F904464C4869
:103E60000D46006AFCF710FAFCF713FA4FF06632C1
:103E7000484BFCF797F9064645480F46C069FCF7E2
:103E800003FAFCF706FA4FF06632424BFCF78AF968
:103E9000CDE91A013E488069FCF7F6F9FCF7F9F91B
:103EA0004FF066323B4BFCF77DF9824638488B4633
:103EB0004069FCF7E9F9FCF7ECF94FF06632354B55
:103EC000FCF770F9CDE9180131480069FCF7DCF91D
:103ED000FCF7DFF94FF066322E4BFCF763F98046B2
:103EE0002B488946C068FCF7CFF9FCF7D2F94FF0B0
:103EF0006632284BFCF756F9CDE916012448806854
:103F0000FCF7C2F9FCF7C5F94FF06632214BFCF71C
:103F100049F9CDE914011E484068FCF7B5F9FCF7F2
:103F2000B8F94FF066321B4BFCF73CF9CDE91201B2
:103F300017480068FCF7A8F9FCF7ABF94FF06632B8
:103F4000144BFCF72FF9CDE91045DDE91A23CDE933
:103F50000E67CDE90AABCDE90C23DDE91823CDE9E5
:103F60000689CDE90823DDE91623CDE90423DDE93F
:103F70001423CDE90223DDE91223CDE90023024613
:103F80000B4605A0FFF7EAF81DB0BDE8F08F000072
:103F9000F400002066664A3F3C763E3A252E3366A2
:103FA0002C252E33662C252E33662C252E33662C9D
:103FB000252E33662C252E33662C252E33662C2594
:103FC0002E33662C252E33662C252E33660A0000F0
:103FD00010B50446094850F82400FCF755F9FCF7E1
:103FE00058F94FF06632064BFCF7DCF80B462146D9
:103FF0000246BDE8104003A0FFF7B0B8F40000206F
:1040000066664A3F3C25643E3A252E33660A000028
:104010002DE9F041524C27683846FCF735F9FCF79A
:1040200038F9504E4FF066352A463346FCF7BAF859
:1040300002460B4639464CA0FFF790F867683846B1
:10404000FCF722F9FCF725F92A463346FCF7AAF8D3
:1040500002460B46394649A0FFF780F8A768384664
:10406000FCF712F9FCF715F92A463346FCF79AF8E3
:1040700002460B46394646A0FFF770F8E768384617
:10408000FCF702F9FCF705F92A463346FCF78AF8F3
:1040900002460B46394643A0FFF760F827693846C9
:1040A000FCF7F2F8FCF7F5F82A463346FCF77AF805
:1040B00002460B46394640A0FFF750F8676938467C
:1040C000FCF7E2F8FCF7E5F82A463346FCF76AF815
:1040D00002460B4639463DA0FFF740F8A76938462F
:1040E000FCF7D2F8FCF7D5F82A463346FCF75AF825
:1040F00002460B4639463AA0FFF730F8E7693846E2
:10410000FCF7C2F8FCF7C5F82A463346FCF74AF834
:1041100002460B46394637A0FFF720F8276A384693
:10412000FCF7B2F8FCF7B5F82A463346FCF73AF844
:1041300002460B46394634A0FFF710F8646A204661
:10414000FCF7A2F8FCF7A5F82A463346FCF72AF854
:104150000B462146BDE8F041024630A0FEF7FEBF07
:10416000F400002066664A3F4348303A2530346404
:104170002020252E3366560A000000004348313ABD
:10418000253034642020252E3366560A00000000B6
:104190004348323A253034642020252E3366560AAF
:1041A000000000004348333A253034642020252E97
:1041B0003366560A000000004348343A2530346420
:1041C0002020252E3366560A000000004348353A69
:1041D000253034642020252E3366560A0000000066
:1041E0004348363A253034642020252E3366560A5B
:1041F000000000004348373A253034642020252E43
:104200003366560A000000004348383A25303464CB
:104210002020252E3366560A000000004348393A14
:10422000253034642020252E3366560A0000000015
:104230007CB504460A4850F824502846FCF724F878
:10424000FCF727F84FF06632064BFBF7ABFFCDE9E2
:1042500000012A46214604A0FEF780FF7CBD000035
:10426000F400002066664A3F434825643A256420EE
:1042700020252E3366560A000102020304050607B4
:1042800008090A0B0C0D0E0F1010010202030405A1
:10429000060708090A0B0C0D0E0F10100000000095
:1042A00000000000010203040607080900000000E6
:1042B0000102030400404040404040404040414132
:1042C00041414140404040404040404040404040EB
:1042D0004040404040050202020202020202020285
:1042E0000202020202202020202020202020200282
:1042F0000202020202029090909090901010101012
:1043000010101010101010101010101010101010AD
:104310000202020202028888888888880808080841
:10432000080808080808080808080808080808080D
:104330000202020240000000B54200085C4300088F
:104340000000002028000000A43100088443000879
:1043500028000020F8060000B4310008000000002A
:10436000000000000000000000000000000000004D
:104370000100000010000000000000000024F40014
:044380000000000039
:04000005080000ED02
:00000001FF
