:020000040800F2
:10000000F007002001010008CF1B0008C71B0008F3
:10001000CB1B00086D010008272400080000000029
:100020000000000000000000000000003D1E00086D
:10003000031A0008000000009D1C0008291F00088A
:100040001B0100081B0100081B0100081B01000820
:100050001B0100081B0100081B0100081B01000810
:100060001B0100081B0100081B0100081B01000800
:100070001B0100081B0100081B0100081B010008F0
:100080001B0100081B0100081B0100081B010008E0
:100090001B0100081B0100081B0100081B010008D0
:1000A0001B010008352000081B0100081B01000887
:1000B0001B0100081B0100081B0100081B010008B0
:1000C0001B0100081B0100081B0100081B010008A0
:1000D0001B010008052200081B0100081B01000885
:1000E0001B0100081B0100081B010008DFF80CD0F1
:1000F00000F02AF80048004775270008F0070020A4
:100100000648804706480047FEE7FEE7FEE7FEE7B1
:10011000FEE7FEE7FEE7FEE7FEE7FEE73D1F00081D
:10012000ED0000080649074A0868504343F23902C7
:10013000104408604008704701490860704700009B
:100140008C0000206D4EC641064C074D06E0E0686D
:1001500040F0010394E8070098471034AC42F6D30E
:10016000FFF7C8FF143000083430000800BFFEE776
:100170002DE9F04106460F4690461D46002425B164
:10018000012D12D0022D2ED11EE03946304600F04E
:1001900015FE044614B12046BDE8F08142463946BA
:1001A000304600F0C3FA044620E03946304600F0FD
:1001B00079FD04460CB12046EEE74246394630460A
:1001C00000F028F9044611E03946304600F0DEFC24
:1001D00004460CB12046DFE742463946304600F07F
:1001E00009F8044602E04FF0FF3400BF00BF20468C
:1001F000D2E700002DE9FC4107460D469046002657
:1002000083488068019000200090009820F44030DE
:1002100000F5003000900024122D76D2DFE805F0C2
:100220000929DE464748494A50769ABABDDADB4B7F
:100230004C51019820F07F400190019820F4F81073
:1002400000F5C0200190019820F4706000F58070E6
:100250000190019820F00F00401C0190009820F4BC
:10026000FE4000F5E0600090009864F30500009007
:10027000B7E0019820F07F400190019820F4F81039
:1002800000F500300190019820F470600190019811
:1002900020F00F000190009820F4FE4000F540701F
:1002A0000090009864F3050000909AE000BF00BF42
:1002B00000BF00BF00BF00BF4FF0FF30BDE8FC81B2
:1002C00000BF019820F07F400190019820F4F810C1
:1002D00000F560200190019820F4706000F54070F6
:1002E0000190019820F00F00C01C0190009820F4AC
:1002F000FE4000F570600090009864F305000090E7
:10030000009820F4403000906BE067E0019820F006
:100310007F400190019820F4F81000F5E020019052
:10032000019820F4706000F500700190019820F0B1
:100330000F00801C0190009820F4FE4000F5006042
:100340000090009864F305000090009820F440307D
:10035000009046E0019820F07F400190019820F441
:10036000F81000F5C0200190019820F4706000F5AD
:1003700080700190019820F00F00401C01900098BF
:1003800020F4FE4000F5E0600090009864F3050062
:10039000009026E04FF0FF3090E7019820F07F407A
:1003A0000190019820F4F81000F5003001900198B8
:1003B00020F470600190019820F00F0001900098E7
:1003C00020F4FE4000F540700090009864F30500B2
:1003D000009006E000BF4FF0FF306FE74FF0FF30B6
:1003E0006CE700BF08213846019A01F0D3FA0646AF
:1003F00016B16FF0010061E70C213846009A01F058
:10040000C9FA064616B16FF0020057E7304655E7C5
:100410009C2C00082DE9FC4107460D46904600261D
:10042000C1488068019000200090009820F440307E
:1004300000F5003000900024122D7CD2DFE805F09A
:1004400009297B49678687888DB2D6FAF8F7F64A7C
:10045000898E019820F07F400190019820F4F810D7
:1004600000F560200190019820F4706000F5407064
:100470000190019820F00F00C01C0190009820F41A
:10048000FE4000F570600090009864F30500009055
:1004900033E1019820F07F400190019820F4F8109A
:1004A00000F5C0200190019820F4706000F5807084
:1004B0000190019820F00F00401C0190009820F45A
:1004C000FE4000F5E0600090009864F305000090A5
:1004D00013E100BF019820F07F400190019820F4C3
:1004E000F81000F500300190019820F47060019040
:1004F000019820F00F000190009820F4FE4000F5D4
:1005000040700090009864F305000090F5E00198B9
:1005100020F07F400190019820F4F81000F5803021
:100520000190019820F470600190019820F00F0074
:100530000190009800E0DDE020F4FE4000F500703E
:100540000090009864F305000090D6E000BF00BF63
:1005500000BF4FF0FF30BDE8FC8100BF019820F0E4
:100560007F400190019820F4F81000F5F010019000
:10057000019820F4706000F5E0600190019820F08F
:100580000F00C01D0190009820F4FE4000F5F850C7
:100590000090009864F305000090009820F440302B
:1005A0000090AAE0019820F07F400190019820F48B
:1005B000F81000F588100190019820F4706000F5A3
:1005C00080600190019820F00F00001D01900098BC
:1005D00020F4FE4000F590500090009864F3050070
:1005E0000090009820F44030009086E0019820F0C0
:1005F0007F400190019820F4F81000F560200190F0
:10060000019820F4706000F540700190019820F08E
:100610000F00C01C0190009820F4FE4000F57060AF
:100620000090009864F30500009066E045E041E02A
:1006300020E0FFE7019820F07F400190019820F42E
:10064000F81000F500200190019820F4706000F58A
:1006500000700190019820F00F00801C019000981C
:1006600020F4FE4000F510600090009864F305004F
:10067000009042E0019820F07F400190019820F422
:10068000F81000F5C0200190019820F4706000F58A
:1006900080700190019820F00F00401C019000989C
:1006A00020F4FE4000F5E0600090009864F305003F
:1006B000009022E04FF0FF304DE7019820F07F409E
:1006C0000190019820F4F81000F500300190019895
:1006D00020F470600190019820F00F0001900098C4
:1006E00020F4FE4000F540700090009864F305008F
:1006F000009002E04FF0FF302DE700BF08213846A0
:10070000019A01F047F9064616B16FF0010022E7A1
:100710000C213846009A01F03DF9064616B16FF0FB
:10072000020018E7304616E79C2C00082DE9FC4132
:1007300007460D4690460026FE488068019000203E
:100740000090009820F4403000F500300090002424
:10075000122D7DD2DFE805F0092949698CACC9F179
:10076000EFEEEDECEBEAE96ACAE8019820F07F4091
:100770000190019820F4F81000F5F0100190019814
:1007800020F4706000F5E0600190019820F00F0007
:10079000C01D0190009820F4FE4000F5F850009034
:1007A000009864F305000090D9E1019820F07F40A3
:1007B0000190019820F4F81000F560200190019854
:1007C00020F4706000F540700190019820F00F0057
:1007D000C01C0190009820F4FE4000F5706000906D
:1007E000009864F305000090B9E1019820F07F4083
:1007F0000190019820F4F81000F500200190019874
:1008000020F4706000F500700190019820F00F0056
:10081000801C0190009820F4FE4000F510600090CC
:10082000009864F30500009099E100BF019820F062
:100830007F400190019820F4F81000F5C02001904D
:10084000019820F4706000F580700190019800E03C
:1008500081E120F00F00401C0190009820F4FE4040
:1008600000F5E0600090009864F30500009076E1E8
:10087000019820F07F400190019820F4F81000F5D5
:1008800080200190019820F4706000F58070019044
:10089000019820F00F00401C0190009820F4FE40C9
:1008A00000F5A0600090009864F30500009056E108
:1008B000019820F07F400190019820F4F81000F595
:1008C00040300190019820F470600190019820F070
:1008D0000F000190009820F4FE4000F58060009029
:1008E000009864F30500009039E100BF019820F002
:1008F0007F400190019820F4F81000F5003001903D
:10090000019820F470600190019820F00F00019090
:10091000009820F4FE4000F540700090009820F010
:100920003F00401C00901AE125E0F0E0CFE0AEE08F
:100930008DE06CE045E01DE0FFE7019820F07F408E
:100940000190019820F4F81000F580300190019892
:1009500020F470600190019820F00F000190009841
:1009600020F4FE4000F500700090009820F03F0059
:100970000090F4E000BF019820F07F4000F180700B
:100980000190019820F4F81000F5F0100190019802
:1009900020F4706000F5E0600190019820F00F00F5
:1009A000C01D0190009820F4FE4000F5F850009022
:1009B000009864F305000090009820F44030009007
:1009C000CDE0019820F07F4000F180700190019807
:1009D00020F4F81000F588100190019820F4706060
:1009E00000F580600190019820F00F00001D01903B
:1009F000009820F4FE4000F590500090009864F3B9
:100A000005000090009820F440300090A7E0019885
:100A100020F07F400190019820F4F81000F5F010CC
:100A20000190019820F4706000F5E0600190019859
:100A300020F00F00C01D0190009820F4FE4000F54A
:100A4000F8500090009864F30500009087E001984A
:100A500020F07F400190019820F4F81000F59010EC
:100A60000190019820F4706000F5A0600190019859
:100A700020F00F00401D0190009820F4FE4000F58A
:100A800098500090009864F30500009067E001988A
:100A900020F07F400190019820F4F81000F56020CC
:100AA0000190019820F4706000F540700190019869
:100AB00020F00F00C01C0190009820F4FE4000F5CB
:100AC00070600090009864F30500009047E0019882
:100AD00020F07F400190019820F4F81000F50020EC
:100AE0000190019820F4706000F500700190019869
:100AF00020F00F00801C0190009820F4FE4000F5CB
:100B000010600090009864F30500009027E00198C1
:100B100020F07F400190019820F4F81000F5C020EB
:100B20000190019820F4706000F5807001900198A8
:100B300002E000009C2C000820F00F00401C0190F7
:100B4000009820F4FE4000F5E0600090009864F307
:100B50000500009003E04FF0FF30BDE8FC8100BFCE
:100B600008213846019A00F015FF064616B16FF0CD
:100B70000100F2E70C213846009A00F00BFF064610
:100B800016B16FF00200E8E73046E6E7F8B5064632
:100B90000C460025424840680090122C70D2DFE8D5
:100BA00004F0090A6F0B0C0D0E0F25262728292AA1
:100BB0002B41425800BF00BF00BF00BF00BF00BFB5
:100BC000009820F07F400090009820F47F0000F50E
:100BD00060200090009820F4FE4000F540700090E6
:100BE000009820F07F00C01C00904CE000BF00BFC8
:100BF00000BF00BF00BF00BF009820F07F40009002
:100C0000009820F47F0000F5F0100090009820F488
:100C1000FE4000F5E0600090009820F07F00C01DCD
:100C2000009030E000BF009820F07F4000900098D6
:100C300020F47F0000F5E0200090009820F4FE40B2
:100C400000F500700090009820F07F00801C00905C
:100C500019E0009820F07F400090009820F47F0079
:100C600000F578100090009820F4FE4000F57060C8
:100C70000090009820F07F000F30009003E0FFE725
:100C80004FF0FF30F8BD00BF04213046009A00F05D
:100C900081FE054615B16FF00100F3E72846F1E744
:100CA0009C2C0008F8B506460C46002542484068D2
:100CB0000090122C70D2DFE804F0090A6F0B0C0DC3
:100CC0000E0F25262728292A2B41425800BF00BF96
:100CD00000BF00BF00BF00BF009820F07F40009021
:100CE000009820F47F0000F5F0100090009820F4A8
:100CF000FE4000F5E0600090009820F07F00C01DED
:100D000000904CE000BF00BF00BF00BF00BF00BFAD
:100D1000009820F07F400090009820F47F0000F5BC
:100D200078100090009820F4FE4000F5706000906C
:100D3000009820F07F000F30009030E000BF009856
:100D400020F07F400090009820F47F0000F56020A4
:100D50000090009820F4FE4000F54070009000984C
:100D600020F07F00C01C009019E0009820F07F4028
:100D70000090009820F47F0000F5FC00009000989F
:100D800020F4FE4000F5F8500090009820F07F001D
:100D90001F30009003E0FFE74FF0FF30F8BD00BFC9
:100DA00004213046009A00F0F5FD054615B16FF0BC
:100DB0000100F3E72846F1E79C2C0008F8B505464A
:100DC0000C460026414840680090122C71D2DFE8A2
:100DD00004F0090A0B0C0D0E0F10262728292A2BC8
:100DE0002C42435900BF00BF00BF00BF00BF00BF7F
:100DF00000BF009820F07F400090009820F47F0012
:100E000000F578100090009820F4FE4000F5706026
:100E10000090009820F07F000F3000904CE000BF61
:100E200000BF00BF00BF00BF00BF009820F07F40A0
:100E30000090009820F47F0000F5FC0000900098DE
:100E400020F4FE4000F5F8500090009820F07F005C
:100E50001F30009030E000BF009820F07F400090ED
:100E6000009820F47F0000F5F0100090009820F426
:100E7000FE4000F5E0600090009820F07F00C01D6B
:100E8000009019E0009820F07F400090009820F436
:100E90007F0000F57E000090009820F4FE4000F5F1
:100EA0007C500090009820F07F003F30009003E0DD
:100EB000FFE74FF0FF30F8BD00BF04212846009A3D
:100EC00000F068FD06463046F5E700009C2C00085F
:100ED000F8B506460C4600252A48006800902078A0
:100EE000009960F30401009120784109009861F3B2
:100EF0004510009020788109009861F386100090D9
:100F00002078C109009861F3082000902088010A28
:100F1000009861F34A2000902088810A009861F3CC
:100F20000C3000902088C10A009861F310400090B6
:100F30002088010B009861F3514000902088410BFC
:100F4000009861F3924000902088810B009861F333
:100F5000D34000902088C10B009861F3145000909A
:100F60002068010C009861F31F700090002130464A
:100F7000009A00F00FFD054615B14FF0FF30F8BDA7
:100F80002846FCE79C2C000808B501462548006867
:100F9000009000980A6860F304020A600098420911
:100FA000086862F34510086000988209086862F3D7
:100FB000861008600098020A086862F3C71008608B
:100FC0000098420A086862F3092008600098020B42
:100FD000086862F38A2008600098020C086862F3CF
:100FE000CB2008600098420C086862F30C3008605F
:100FF0000098820C086862F34D3008600098C20CBB
:10100000086862F38E3008600098020D086862F389
:10101000CF3008600098020F086862F31340086040
:10102000002008BD9C2C00080146002000BF00BF26
:10103000092901DA084619E0A1F10902072A13D2A9
:10104000DFE802F00406080A0C0E10000C200CE089
:1010500010200AE0142008E0182006E0202004E018
:10106000302002E0402000E000BF00BF704738B5EC
:1010700005460024002000906A4640F60C61284690
:1010800000F00CF9044614B14FF0FF3038BD9DF864
:10109000000040F0010000909DF8002040F60C6137
:1010A000284600F005FC044614B16FF00100EDE79E
:1010B0000020EBE72DE9F84306460C4615464FF0B5
:1010C000000800200090286800904FF4FA7000EBB0
:1010D000C40739463046009A00F05CFC8046404622
:1010E000BDE8F8832DE9F84306460C4615464FF057
:1010F000000800200090286800904FF4F87000EB82
:10110000C40739463046009A00F044FC8046404609
:10111000BDE8F8832DE9F84380460C4615461E4687
:101120004FF000092EB1009820F080008030009030
:1011300003E0009820F080000090009865F3040020
:10114000009004F5E8779DF800203946404600F00D
:10115000AFFB81464846BDE8F8832DE9F8430746D2
:101160000D4616460024A04640F607680020009071
:101170000DF103024146384600F090F804461CB1D8
:101180004FF0FF30BDE8F883009865F318600090D9
:10119000009866F3596000909DF803204146384658
:1011A00000F086FB044614B16FF00100EAE7204628
:1011B000E8E7F8B506460D46002400271E27002064
:1011C000ADF800006A463946304600F0B9F80446EA
:1011D00014B14FF0FF30F8BDBDF800004FF61F719D
:1011E00029400843ADF80000BDF8002039463046DC
:1011F00000F0A6FB044614B16FF00100EBE72046B7
:10120000E9E7F8B506460D460020009000246A463E
:101210000321304600F042F8044614B14FF0FF308D
:10122000F8BD9DF8000020F0070000909DF8000038
:10123000284300909DF800200321304600F038FB41
:10124000044614B16FF00100EAE72046E8E72DE913
:10125000F04198B080460E460027002402E00DF8C9
:101260000460641C602CFAD34FF48065002410E005
:1012700060236A462946404600F038FB074627B1FE
:101280004FF0FF3018B0BDE8F08105F1600085B285
:10129000641C152CECD33846F4E700002DE9F0412E
:1012A00006460C46154603274FF00008C4F30320FA
:1012B0003030084908704C70002088703B46064A60
:1012C000304600F091FB8046034880782870404605
:1012D000BDE8F0812C0100208C0100202DE9F047B1
:1012E00081460D4617461E46B01C1FFA80F84FF087
:1012F000000AC5F3032030300F4908704D700224F6
:1013000004E000200C490855601C84B24445F8DB19
:1013100043460A4A0849484600F066FB82460024D4
:1013200005E00649A01C085C3855601C84B2B44234
:10133000F7DB5046BDE8F0872C0100208C0100202F
:101340002DE9F04781460E4615464FF0040A4FF04E
:101350000008C6F303203030104908704E70534621
:101360000F4A484600F040FB8046B8F1000F02D01B
:101370004046BDE8F0870020288002240AE00848A3
:10138000075D2988A01EC00007FA00F008442880E5
:10139000601CC4B2042CF2DB4046EAE72C010020BA
:1013A0008C0100202DE9FF4F81B00E4691461D466D
:1013B000022000EB85001FFA80FA4FF0000BC6F305
:1013C000032030301B4908704E70022404E00020D6
:1013D00018490855601C84B25445F8DB5346164A38
:1013E0001449019800F000FB8346BBF1000F03D0C5
:1013F000584605B0BDE8F08F4FF00208002415E014
:101400000020009000270AE00B4810F808000DF8B3
:101410000700781C87B208F101001FFA80F8042F3A
:10142000F2DB009849F82400601C84B2AC42E7DB90
:101430005846DEE72C0100208C0100202DE9F843FE
:1014400006460D4614460027B8461DB96FF06300E6
:10145000BDE8F883124800680090009820F08000F2
:10146000009020784108009861F31C60009020886B
:101470008109009861F35F7000902078009960F313
:101480004511009105EB4500502101EB80084146D4
:101490003046009A00F07EFA07463846D8E700004A
:1014A000EC2C000808B501460B4800680090009835
:1014B000020E086862F3450008600098420F086851
:1014C00062F38810086000984209086862F300001F
:1014D0000860002008BD0000EC2C00082DE9F8434E
:1014E00007460C4616460025A8461CB96FF0630057
:1014F000BDE8F88304EB4400502101EB8008002094
:1015000000906A4641463846FFF7C8FE054615B1C9
:101510004FF0FF30ECE79DF8000006F00F010843A4
:101520008DF800009DF800204146384600F0C0F9D3
:10153000054615B16FF00100DAE72846D8E700004C
:1015400070B5044602250026002005490870487041
:101550002B46044A204600F047FA0646304670BD46
:101560002C0100208C01002038B505460024002005
:1015700000906A4616212846FFF790FE044614B1F3
:101580004FF0FF3038BD9DF8000040F001000090A2
:101590009DF800201621284600F08AF9044614B16F
:1015A0006FF00100EEE72046ECE7F8B506460D4681
:1015B0000024002000906A4616213046FFF76EFE98
:1015C000044614B14FF0FF30F8BD9DF8000000F064
:1015D000010000909DF8000040EA4500C0B2009074
:1015E0009DF800201621304600F062F9044614B13F
:1015F0006FF00100E8E72046E6E770B505460C46C7
:10160000002622461421284600F09AF90646304664
:1016100070BD70B505460C460026224610212846AE
:1016200000F0B8F90646304670BD00002DE9F843D9
:1016300006460D4614460027B84619480068009033
:10164000009820F08000803000902088010A0098E7
:1016500061F31C6000902088410B009861F35F707B
:10166000009020788109009861F35650009020780E
:101670004108009861F3144000902078009960F3CD
:101680008611009105EB4500502101EB8008414691
:101690003046009A00F07EF907463846BDE8F883E8
:1016A000EC2C000808B5014611480068009000982D
:1016B0008209086862F3000008600098020C08685C
:1016C00062F3450008600098420D086862F38710D5
:1016D00008600098020E086862F30C200860009809
:1016E000420F086862F34F300860002008BD000018
:1016F000EC2C00082DE9F84307460C461546002659
:10170000B0460020009004EB4400542101EB800817
:101710006A4641463846FFF7C1FD06461EB14FF006
:10172000FF30BDE8F8839DF8000000F01700287036
:101730003046F6E72DE9FF4F9BB08B461446289DB7
:1017400000270BEB4B00502101EB80001A90032384
:1017500017AADDE91A10FFF725FE074627B14FF05B
:10176000FF301FB0BDE8F08F179816901698C0F3A1
:10177000C01010B96FF00100F3E7217901F00F00FC
:10178000FFF752FC8146A94502D26FF00200E8E75C
:1017900018981590199814901498C0F30B001A908B
:1017A0001A9800F580601A9020788DF8040060780F
:1017B0008DF80500A0788DF80600E0788DF8070018
:1017C00020798DF8080060798DF80900A0798DF8EE
:1017D0000A00E0798DF80B00002607E01E98815D75
:1017E00001AA06F108001154701CC6B2AE42F5D32E
:1017F0004FF0000AD04605F00300A0B105F0030049
:10180000C0F1040A05F10800C6B200BF09E00021DA
:1018100006F10800404401AA115408F1010000F04B
:10182000FF08D045F3DB05F10800504483B201AA5C
:10183000DDE91A1000F05AF8074617B16FF00300FF
:101840008FE75946299A1B9800F007F8074617B109
:101850006FF0040085E7384683E72DE9F843074633
:101860000C461546002604EB4400502101EB800095
:1018700000F1010800200090009820F4807000F52D
:10188000807000902DB1009820F4007000F5007079
:1018900000909DF801204146384600F009F80646C0
:1018A0001EB14FF0FF30BDE8F8833046FBE7000083
:1018B0002DE9F04106460C46154603274FF0000877
:1018C000C4F303202030074908704C700846857027
:1018D0003B46054A304600F087F880464046BDE862
:1018E000F08100002C0100208C0100202DE9F04740
:1018F00081460D4616461F46B81C1FFA80F84FF069
:10190000000AC5F3032020300B4908704D700224F3
:1019100005E0A01E305C08490855601C84B24445AF
:10192000F7DB4346054A0449484600F05DF8824625
:101930005046BDE8F08700002C0100208C010020FB
:101940002DE9F04707460D4616464FF004084FF0C4
:101950000009C5F3032020300C4908704D700024A5
:1019600008E0E00046FA00F0C1B2084AA01C115499
:10197000601CC4B2022CF4DB4346054A03493846D6
:1019800000F032F881464846BDE8F0872C0100207F
:101990008C0100202DE9F04707460D4616464FF012
:1019A00006084FF00009C5F3032020300C490870E9
:1019B0004D70002408E0E00026FA00F0C1B2084AA9
:1019C000A01C1154601CC4B2042CF4DB4346054A2D
:1019D0000349384600F008F881464846BDE8F087DC
:1019E0002C0100208C0100202DE9F04107460C4617
:1019F00015461E4632462946204601F0A9F8BDE8A4
:101A0000F08170472DE9F0410246002500260020B4
:101A100000230024002791F803C00CF00F0591F873
:101A200003C00CF0100CBCF1000F03D091F802C001
:101A30004CEA050591F800C0BCF1000F31D01468E4
:101A400000202BE04FF0010C0CFA00F3B1F800C0BD
:101A50000CEA03069E4220D183004FF00F0C0CFAD3
:101A600003F7BC4305FA03FC4CEA040491F803C0F5
:101A7000BCF1280F06D14FF0010C0CFA00FCC2F8A3
:101A800014C00AE091F803C0BCF1480F05D14FF033
:101A9000010C0CFA00FCC2F810C0401C0828D1D37D
:101AA0001460B1F800C0BCF1FF0F34DD54680020B1
:101AB0002EE000F1080C4FF0010808FA0CF3B1F821
:101AC00000C00CEA03069E4221D183004FF00F0CA8
:101AD0000CFA03F7BC4305FA03FC4CEA040491F842
:101AE00003C0BCF1280F05D100F1080C08FA0CF86E
:101AF000C2F8148091F803C0BCF1480F07D100F17F
:101B0000080C4FF0010808FA0CF8C2F81080401CCD
:101B10000828CED35460BDE8F0810000F0B50A4635
:101B2000002300240021002500F00046B6F1004FFC
:101B300002D11D4EF16901E01B4E7168C0F30345EF
:101B400083B200F44016B6F5401F08D121F0706151
:101B5000154E766826F07066134F7E6012E000F432
:101B60008016B6F5801F06D1032606FA05F4A143B8
:101B700041F0706106E0460D360103FA06F6B14306
:101B800041F0706122B1460D360103FA06F6314389
:101B900000F00046B6F1004F02D1034EF16101E0C2
:101BA000014E7160F0BD00000000014002460020BF
:101BB00093680B400BB1012000E0002070474161A9
:101BC00070470161704700BFFEE700BFFEE7704746
:101BD00070B5002100230F22C47804B3154C24688B
:101BE00004F4E064C4F5E064210AC1F10403CA40CE
:101BF000447804FA03F184781440214309010E4C1F
:101C00000678A155047804F01F050124AC4005783E
:101C10006D11AD0005F1E025C5F8004109E004783B
:101C200004F01F050124AC40044D0678761145F8F8
:101C3000264070BD0CED00E000E400E080E100E033
:101C400002490143024A1160704700000000FA0592
:101C50000CED00E008B54FF4E060FFF7F1FF252040
:101C60008DF8000000208DF8020001208DF803009F
:101C70006846FFF7ADFF012240F22551044800F00D
:101C800037FB0020034908700349088008BD0000A5
:101C900000380140420000203E0000207047000054
:101CA00029B1064A92690243044B9A6104E0034A4F
:101CB00092698243014B9A61704700000010024014
:101CC00030B500210022002400232D4D6D6805F061
:101CD0000C0121B1042905D0082923D105E0294DA3
:101CE000056022E0274D05601FE0254D6D6805F475
:101CF0007012234D6D6805F48034022505EB924285
:101D00001CB9214D554305600BE01D4D6D6805F470
:101D100000351DB11C4D5543056002E0194D55437A
:101D2000056002E0174D056000BF00BF144D6D68EF
:101D300005F0F0010909154D6B5C0568DD40456053
:101D40000F4D6D6805F4E061090A104D6B5C456844
:101D5000DD4085600A4D6D6805F46051C90A0B4D80
:101D60006B5C4568DD40C560054D6D6805F440411C
:101D7000890B074D6B5CC568B5FBF3F5056130BD9C
:101D80000010024000127A0000093D007800002097
:101D90008800002010B5044600BF02210A4800F068
:101DA00021F80028F9D02146074800F027F800BFA5
:101DB0000121054800F016F80028F9D0024800F08B
:101DC0001AF8C0B210BD00000030014021B10288F5
:101DD00042F04002028004E002884FF6BF731A40CE
:101DE000028070470246002013890B400BB101208E
:101DF00000E0002070470146888970478181704764
:101E000010B50022028802F441520B884C8823430B
:101E10008C882343CC8823430C8923434C89234358
:101E20008C892343CC8923431A430280838B4FF24E
:101E3000FF74234083830B8A038210BD704710B563
:101E400000F002F810BD00000CB5002001900090D9
:101E50003348006840F480303149086000BF3048A2
:101E6000006800F4003000900198401C0190009838
:101E700018B90198B0F5A06FF1D12948006800F4B5
:101E8000003010B10120009001E000200090009887
:101E9000012843D12348006840F010002149086020
:101EA0000846006820F0030008600846006840F01B
:101EB000020008601A4840681949486008464068AE
:101EC00048600846406840F48060486008464068C2
:101ED00020F47C1048600846406840F4E8104860F0
:101EE0000846006840F08070086000BF0C48006839
:101EF00000F000700028F9D00948406820F0030085
:101F0000074948600846406840F00200486000BF4A
:101F10000348406800F00C000828F9D10CBD00000F
:101F2000001002400020024010B500F05FF90120CF
:101F30000149087010BD00001000002010B51348C2
:101F4000006840F0010011490860084640681049E7
:101F500008400E494860084600680E4908400B4991
:101F600008600846006820F4802008600846406841
:101F700020F4FE0048604FF41F008860FFF75FFF09
:101F80004FF000600449086010BD000000100240DE
:101F90000000FFF8FFFFF6FE08ED00E008B548F28C
:101FA0001000ADF8000010208DF8030002208DF81D
:101FB000020069461B48FFF725FDC020ADF8000070
:101FC00010208DF8030002208DF8020069461648A3
:101FD000FFF718FD0220ADF8000010208DF8030077
:101FE00003208DF8020069461048FFF70BFD012120
:101FF000C803FFF793FD01210846FFF751FE0121B9
:102000000B48FFF78BFD3A20ADF8000048208DF813
:10201000030002208DF8020069460348FFF7F2FC36
:1020200008BD000000080140000C01400014014000
:102030000002300010B50121114800F036F8F0B16F
:1020400001210F4800F022F80E4801680068401C8A
:102050000C4A1060B1F57A7F0DD900201146086056
:10206000094800684FF6FF71884204D206480068AC
:10207000401C0549086000F089FD00F051FC10BDCE
:10208000002C01405400002050000020CA4302826E
:10209000704721B1028842F00102028004E0028808
:1020A0004FF6FE731A400280704730B5024600209A
:1020B00000230024158A05EA0103958905EA010435
:1020C00013B10CB1012000E0002030BD1AB18389AA
:1020D0000B43838102E083898B4383817047000037
:1020E000002202881D4B98420ED01D4B98420BD007
:1020F000B0F1804F08D01B4B984205D01A4B984244
:1021000002D01A4B984204D14FF68F731A404B8875
:102110001A43174B984207D0164B984204D04FF6FB
:10212000FF431A40CB881A4302808B8883850B8833
:1021300003850A4B98420BD0094B984208D00E4BAE
:10214000984205D00D4B984202D00D4B984201D1D8
:102150000B7A03860123838270470000002C014024
:10216000003401400004004000080040000C004022
:1021700000100040001400400040014000440140B5
:10218000004801401FB50121C802FFF789FD40F258
:10219000E730ADF804003F20ADF8000000208DF8D6
:1021A0000800ADF80600ADF8020069460E48FFF7DA
:1021B00097FF01210C48FFF769FF012211460A48E9
:1021C000FFF784FF01210848FFF763FF19208DF80E
:1021D0000C0003208DF80D0001208DF80F0003A8DE
:1021E000FFF7F6FC1FBD0000002C0140044800680A
:1021F00020B103480068401E014908607047000094
:102200004400002010B540F225510E4800F046F879
:10221000B0B10C4800F0FEF8C1B20B480488601C55
:10222000094A1080094801550120094908701046E3
:10223000008808490988884202D100201146088098
:1022400010BD0000003801403E000020FC010020CD
:10225000420000204000002001F40072B2F5007F2F
:1022600000D100BFCA430280704721B1828942F485
:102270000052828104E082894DF6FF731A40828108
:10228000704702460020B1F5007F00D100BF1388DF
:102290000B400BB1012000E00020704770B50246F2
:1022A000002400230025002040F66A16B14200D128
:1022B00000BFC1F3421501F01F03012606FA03F324
:1022C000012D02D19689334006E0022D02D1168AF3
:1022D000334001E0968A33400C12012606FA04F4DA
:1022E0001688344013B10CB1012000E0002070BD0D
:1022F000F0B50346002400260025002040F66A17AA
:10230000B94200D100BF1846C1F3421401F01F06C4
:10231000012707FA06F5012C01D10C3004E0022C4C
:1023200001D1103000E014301AB107682F43076064
:1023300002E00768AF430760F0BD00002DE9F047F9
:1023400086B005460E460024A24600BFA1460027DF
:10235000B08900B100BF2F462C8A4CF6FF700440B4
:10236000F08804432C82AC894EF6F3100440B08808
:1023700031890843718908430443AC81AC8A4FF624
:10238000FF400440B0890443AC8201A8FFF798FCE9
:102390001F48874202D1DDF810A001E0DDF80CA053
:1023A000A88900F4004040B10AEBCA0000EB0A1013
:1023B00031684900B0FBF1F807E00AEBCA0000EB16
:1023C0000A1031688900B0FBF1F86420B8FBF0F026
:1023D00004012009642101FB1089A88900F4004050
:1023E00040B1322000EBC900B0FBF1F000F0070073
:1023F000044308E0322000EB09106421B0FBF1F047
:1024000000F00F0004432C8106B0BDE8F087000007
:102410000038014001468888C0F308007047C1F3C6
:1024200008028280704700BFFEE70000014A0249AF
:1024300000F013B8512700089000002002E008C8FF
:10244000121F08C1002AFAD170477047002001E02E
:1024500001C1121F002AFBD170472DE9F041164639
:102460000F460446002503E03946B047641C6D1C46
:1024700020780028F8D12846BDE8F08170B5A0B0DA
:102480000026042531E0002408E0FDF74BFE10A9EA
:102490000855FF200DF80400601CC4B2AC42F4DB08
:1024A0002B4610AA4FF480610020FFF71FFA2B463D
:1024B0006A464FF480610020FEF710FF00260024DA
:1024C0000FE010A8005D1DF80410884201D1012022
:1024D00000E00020064616B9002020B070BD601C48
:1024E000C4B2AC42EDDB281DC5B2402DCBDD0120CE
:1024F000F3E7000000B585B0012141F20400FFF7C9
:10250000CFFB01210846FFF7CBFB0020ADF8000010
:102510004FF48270ADF802000020ADF804000220F4
:10252000ADF806000120ADF808004002ADF80A0041
:102530000820ADF80C000020ADF80E000720ADF823
:10254000100069460448FFF75BFC01210248FFF7D1
:102550003DFC05B000BD00000030014010B500207A
:1025600000F0E2F818B90249002000F00AF810BDA6
:10257000E000002010B5FFF781FF044604B100BF62
:1025800010BD7CB505460C46217901F00F00FEF721
:102590004BFDC6B2012004F10C0322460221CDE915
:1025A00000602846FFF7C6F87CBD10B586B004462B
:1025B0000020FEF7C5FF0020FEF759FDFF21002097
:1025C000FEF745FE01A8FEF7DFFC019820F0200091
:1025D00020300190019820F480400190019820F46F
:1025E0008060019001A90020FEF772FC03A8FFF7AC
:1025F00059F8039820F4F85000F5306003900398E0
:1026000020F4604000F560400390039820F03E0005
:10261000801C039003AA02210020FFF707F802A8FC
:10262000FEF740FF029820F03E001E300290029814
:1026300020F4E07000F5E0700290029820F00100B4
:10264000401C029002AA01210020FEF7F7FE0221A1
:102650000020FEF7AAFF27210020FEF7CEFF002171
:102660000846FEF7D6FF0020FEF77EFF002005900B
:10267000059820F0804005900021059861F3DC204A
:10268000059005986FF30A00059005AA0846FEF725
:1026900029FD00200490049820F08040049000213F
:1026A000049861F3DC20049004986FF30A0004900E
:1026B00004AA0846FEF7FEFC01231A46002108463C
:1026C000FEF728FD0023022221461846FDF750FDA3
:1026D000002211461046FEF740FD0122114600205F
:1026E000FEF7FCFE02210020FEF763FD00210846F4
:1026F000FEF787FD06B010BD01B5044900980860DB
:1027000000BF024800680028FBD108BD440000203B
:1027100010B5044600F0F6F9FFF7ECFEFFF72AFFCC
:102720002046FFF742FF10BD10B50446074A0221BC
:102730002046FEF7DFFF0548007800F0010008B1F1
:10274000002010BD4FF0FF30FBE700001C00002010
:1027500070B504460D4600BF40210548FFF791FDC6
:102760000028F9D0E1B20248FFF759FE204670BDBB
:102770000038014086B001A8FFF7A2FA642202984F
:10278000B0FBF2F1B1F1807F00D31DE021F07F407A
:10279000401E4FF0E022506150170F22002807DA48
:1027A00013071D0E524B00F00F04241F1D5503E0AC
:1027B00013071C0E4F4B1C5400BF00204FF0E022AB
:1027C00090610720106100BF01210C20FFF768FA1B
:1027D000FFF7E4FB4FF4E13000F014FAFFF7D2FC0E
:1027E0000120FFF795FF44A0FFF720FE0520FFF72B
:1027F00083FF0020464908604860FFF7AFFE76E09F
:102800000120FFF785FF0020424908806BE0404827
:1028100000686FF30A0000F52C703D490860084617
:10282000406820F00F00083048600846406820F0FB
:10283000100048600846406820F0200048600846C4
:10284000406820F04000403048600846406820F072
:102850008000803048603048007808732E48017846
:102860002B4841732C480178294881732A48017804
:102870002748C173FFF772FE1E20FFF73DFF244873
:1028800000686FF30A0000F266602149086008469C
:10289000406820F00F00083048600846406820F08B
:1028A000100048600846406820F020004860084654
:1028B000406820F04000403048600846406820F002
:1028C0008000803048601548007808730021104867
:1028D0004173FFF743FE1E20FFF70EFF0D480088EF
:1028E000401C0C4908800B48008805288FDB87E7CF
:1028F00018ED00E000E400E053544D33324631203F
:1029000043414E464420544553540D0A00000000F4
:10291000E000002002000020040000200800002049
:1029200010B508215F48FFF741F95F4908805F480B
:102930000088012805D10846008810B901205C49AB
:1029400008805A48008818BB5748008801281FD1C2
:10295000002057490880574800880A2815DB554849
:10296000008840F6B83188420FDA53A0FFF75EFDC9
:1029700054480068012803DC01205249086004E043
:102980005048006810384F490860002049490880C5
:10299000454800884549088045480088012804D1F9
:1029A00044480088401C4349088010213D48FFF7F7
:1029B000FDF84549088045480088012805D10846AA
:1029C000008810B90120424908804048008808BBAF
:1029D0003D48008801281DD100203D4908803D4820
:1029E00000880A2813DB3B48008840F6B83188424B
:1029F0000DDA39A0FFF71AFD32480068103031496E
:102A0000086008460068F12801DDF1200860002018
:102A1000304908802C4800882C4908802C480088C0
:102A2000012804D12B480088401C2A490880202115
:102A30001C48FFF7BBF82B4908802B480088012869
:102A400005D10846008810B9012028490880264889
:102A50000088C8B923480088012815D100202349DF
:102A60000880234800880A280BDB2148008840F6AC
:102A7000B831884205DA1FA0FFF7D8FC01202049B1
:102A8000086000201A490880164800881649088006
:102A900016480088012804D115480088401C1449B4
:102AA000088010BD000C01405E0000205C0000208A
:102AB0005A000020600000206B3120707265737333
:102AC0000D0A0000080000206600002064000020BD
:102AD00062000020680000206B3220707265737302
:102AE0000D0A00006E0000206C0000206A0000202B
:102AF000700000206B332070726573730D0A000044
:102B00000C00002008B501210420FFF7C9F8E020DF
:102B1000ADF8000018208DF8030003208DF80200A6
:102B200069460A48FEF76EFF1020ADF800008DF8E8
:102B3000030003208DF8020069460448FEF762FF97
:102B4000F0210248FFF73DF808BD000000080140F1
:102B50002DE9F04105460E461746002410210A488B
:102B6000FFF72DF800BF05E0285DFFF713F930559A
:102B7000601C84B2BC42F7DB00BF10210248FFF7A3
:102B800020F80020BDE8F0810008014010B51A4887
:102B90000068401C184908604FF6FF71884202D354
:102BA00000201549086014480068144909688842E3
:102BB00004D280211248FFF704F81CE00E48006898
:102BC0000E49096888420BD30C4800680A49096815
:102BD000B1EB400F04D280210948FEF7F0FF0AE074
:102BE0000648006800EB400003490968884202D2A9
:102BF00000200149086010BD74000020480000203A
:102C0000000C014010B586B0044601210420FFF7F6
:102C100047F801218803FFF743F84FF40070ADF83F
:102C2000140003208DF8160018208DF8170005A950
:102C30001848FEF7E7FE4FF48060ADF81400482016
:102C40008DF8170005A91348FEF7DCFE019400205B
:102C5000ADF80800ADF80A00ADF80C00ADF81000B2
:102C60000C20ADF80E0001A90B48FFF767FBFEF73B
:102C7000F1FF012240F225510748FFF739FB4021BF
:102C80000548FFF7E9FA01210348FFF7EEFA06B01D
:102C900010BD0000000801400038014060079804A2
:102CA0000F0F3E0003030E000010020000000000A2
:102CB0000000000040004040000000000000000054
:102CC0000000000000000000000000000000000004
:102CD00000002000000000000000000000040000D0
:102CE0000000000000000000000000000004600080
:102CF00000000000000000000000000000000000D4
:102D0000600400000300000000000000000000005C
:102D100000000000008040C020A060E0109050D073
:102D200030B070F0088848C828A868E8189858D8C3
:102D300038B878F8048444C424A464E4149454D4C3
:102D400034B474F40C8C4CCC2CAC6CEC1C9C5CDC63
:102D50003CBC7CFC028242C222A262E2129252D2AB
:102D600032B272F20A8A4ACA2AAA6AEA1A9A5ADA63
:102D70003ABA7AFA068646C626A666E6169656D663
:102D800036B676F60E8E4ECE2EAE6EEE1E9E5EDE03
:102D90003EBE7EFE018141C121A161E1119151D16F
:102DA00031B171F1098949C929A969E9199959D933
:102DB00039B979F9058545C525A565E5159555D533
:102DC00035B575F50D8D4DCD2DAD6DED1D9D5DDDD3
:102DD0003DBD7DFD038343C323A363E3139353D31B
:102DE00033B373F30B8B4BCB2BAB6BEB1B9B5BDBD3
:102DF0003BBB7BFB078747C727A767E7179757D7D3
:102E000037B777F70F8F4FCF2FAF6FEF1F9F5FDF72
:102E10003FBF7FFF000005800F800A001B801E005F
:102E200014001180338036003C00398028002D804A
:102E300027802200638066006C00698078007D80B6
:102E400077807200500055805F805A004B804E00A2
:102E500044004180C380C600CC00C980D800DD801A
:102E6000D780D200F000F580FF80FA00EB80EE0002
:102E7000E400E180A000A580AF80AA00BB80BE0076
:102E8000B400B180938096009C00998088008D806A
:102E900087808200838186018C01898198019D81D0
:102EA00097819201B001B581BF81BA01AB81AE01BA
:102EB000A401A181E001E581EF81EA01FB81FE012E
:102EC000F401F181D381D601DC01D981C801CD8122
:102ED000C781C201400145814F814A015B815E018A
:102EE00054015181738176017C01798168016D8182
:102EF00067816201238126012C01298138013D81EE
:102F000037813201100115811F811A010B810E01D9
:102F100004010181038306030C03098318031D8345
:102F200017831203300335833F833A032B832E0329
:102F300024032183600365836F836A037B837E039D
:102F400074037183538356035C03598348034D8391
:102F500047834203C003C583CF83CA03DB83DE03F9
:102F6000D403D183F383F603FC03F983E803ED83F1
:102F7000E783E203A383A603AC03A983B803BD835D
:102F8000B783B203900395839F839A038B838E0349
:102F900084038183800285828F828A029B829E02C3
:102FA00094029182B382B602BC02B982A802AD82B9
:102FB000A782A202E382E602EC02E982F802FD8225
:102FC000F782F202D002D582DF82DA02CB82CE0211
:102FD000C402C182438246024C02498258025D8289
:102FE00057825202700275827F827A026B826E0271
:102FF00064026182200225822F822A023B823E02E5
:1030000034023182138216021C02198208020D82D8
:103010000782020234300008000000209400000003
:103020003C240008C8300008940000205C07000021
:103030004C24000800000000610000006100000056
:103040000000000000000000000000000000000080
:103050000000000000000000000000000000000070
:103060000000000000000000000000000000000060
:1030700000000000F401000000000000F401000066
:103080000000000000000000000000000000000040
:103090000000000000000000000000000000000030
:1030A0000000000000000000000000000000000020
:1030B00001020304010203040607080902040608CA
:0830C000000000000000000008
:04000005080000ED02
:00000001FF
